{
  "_format": "hh-sol-artifact-1",
  "contractName": "RumorVerification",
  "sourceName": "contracts/RumorVerification.sol",
  "abi": [
    {
      "inputs": [
        {
          "internalType": "address",
          "name": "_guiToken",
          "type": "address"
        }
      ],
      "stateMutability": "nonpayable",
      "type": "constructor"
    },
    {
      "anonymous": false,
      "inputs": [
        {
          "indexed": true,
          "internalType": "address",
          "name": "previousOwner",
          "type": "address"
        },
        {
          "indexed": true,
          "internalType": "address",
          "name": "newOwner",
          "type": "address"
        }
      ],
      "name": "OwnershipTransferred",
      "type": "event"
    },
    {
      "anonymous": false,
      "inputs": [
        {
          "indexed": true,
          "internalType": "uint256",
          "name": "rumorId",
          "type": "uint256"
        },
        {
          "indexed": true,
          "internalType": "address",
          "name": "user",
          "type": "address"
        },
        {
          "indexed": false,
          "internalType": "uint256",
          "name": "amount",
          "type": "uint256"
        }
      ],
      "name": "RewardsClaimed",
      "type": "event"
    },
    {
      "anonymous": false,
      "inputs": [
        {
          "indexed": true,
          "internalType": "uint256",
          "name": "rumorId",
          "type": "uint256"
        },
        {
          "indexed": false,
          "internalType": "bool",
          "name": "outcome",
          "type": "bool"
        },
        {
          "indexed": false,
          "internalType": "uint256",
          "name": "totalStake",
          "type": "uint256"
        }
      ],
      "name": "RumorResolved",
      "type": "event"
    },
    {
      "anonymous": false,
      "inputs": [
        {
          "indexed": true,
          "internalType": "uint256",
          "name": "rumorId",
          "type": "uint256"
        },
        {
          "indexed": true,
          "internalType": "address",
          "name": "submitter",
          "type": "address"
        },
        {
          "indexed": false,
          "internalType": "string",
          "name": "content",
          "type": "string"
        },
        {
          "indexed": false,
          "internalType": "string[]",
          "name": "tags",
          "type": "string[]"
        }
      ],
      "name": "RumorSubmitted",
      "type": "event"
    },
    {
      "anonymous": false,
      "inputs": [
        {
          "indexed": true,
          "internalType": "uint256",
          "name": "rumorId",
          "type": "uint256"
        },
        {
          "indexed": true,
          "internalType": "address",
          "name": "voter",
          "type": "address"
        },
        {
          "indexed": false,
          "internalType": "bool",
          "name": "isTrue",
          "type": "bool"
        },
        {
          "indexed": false,
          "internalType": "uint256",
          "name": "stake",
          "type": "uint256"
        }
      ],
      "name": "VoteCast",
      "type": "event"
    },
    {
      "inputs": [],
      "name": "MAX_VOTE_STAKE",
      "outputs": [
        {
          "internalType": "uint256",
          "name": "",
          "type": "uint256"
        }
      ],
      "stateMutability": "view",
      "type": "function"
    },
    {
      "inputs": [],
      "name": "MIN_VOTE_STAKE",
      "outputs": [
        {
          "internalType": "uint256",
          "name": "",
          "type": "uint256"
        }
      ],
      "stateMutability": "view",
      "type": "function"
    },
    {
      "inputs": [],
      "name": "SUBMISSION_FEE",
      "outputs": [
        {
          "internalType": "uint256",
          "name": "",
          "type": "uint256"
        }
      ],
      "stateMutability": "view",
      "type": "function"
    },
    {
      "inputs": [],
      "name": "SUBMITTER_BONUS",
      "outputs": [
        {
          "internalType": "uint256",
          "name": "",
          "type": "uint256"
        }
      ],
      "stateMutability": "view",
      "type": "function"
    },
    {
      "inputs": [],
      "name": "VERIFICATION_WINDOW",
      "outputs": [
        {
          "internalType": "uint256",
          "name": "",
          "type": "uint256"
        }
      ],
      "stateMutability": "view",
      "type": "function"
    },
    {
      "inputs": [
        {
          "internalType": "uint256[]",
          "name": "rumorIds",
          "type": "uint256[]"
        }
      ],
      "name": "batchClaimRewards",
      "outputs": [],
      "stateMutability": "nonpayable",
      "type": "function"
    },
    {
      "inputs": [
        {
          "internalType": "uint256",
          "name": "rumorId",
          "type": "uint256"
        },
        {
          "internalType": "address",
          "name": "user",
          "type": "address"
        }
      ],
      "name": "canClaimReward",
      "outputs": [
        {
          "internalType": "bool",
          "name": "",
          "type": "bool"
        }
      ],
      "stateMutability": "view",
      "type": "function"
    },
    {
      "inputs": [
        {
          "internalType": "uint256",
          "name": "rumorId",
          "type": "uint256"
        }
      ],
      "name": "claimRewards",
      "outputs": [],
      "stateMutability": "nonpayable",
      "type": "function"
    },
    {
      "inputs": [
        {
          "internalType": "address",
          "name": "",
          "type": "address"
        }
      ],
      "name": "correctVotesCount",
      "outputs": [
        {
          "internalType": "uint256",
          "name": "",
          "type": "uint256"
        }
      ],
      "stateMutability": "view",
      "type": "function"
    },
    {
      "inputs": [
        {
          "internalType": "address",
          "name": "token",
          "type": "address"
        },
        {
          "internalType": "uint256",
          "name": "amount",
          "type": "uint256"
        }
      ],
      "name": "emergencyWithdraw",
      "outputs": [],
      "stateMutability": "nonpayable",
      "type": "function"
    },
    {
      "inputs": [],
      "name": "getActiveRumors",
      "outputs": [
        {
          "internalType": "uint256[]",
          "name": "",
          "type": "uint256[]"
        }
      ],
      "stateMutability": "view",
      "type": "function"
    },
    {
      "inputs": [
        {
          "internalType": "uint256",
          "name": "rumorId",
          "type": "uint256"
        }
      ],
      "name": "getRumorDetails",
      "outputs": [
        {
          "internalType": "address",
          "name": "submitter",
          "type": "address"
        },
        {
          "internalType": "string",
          "name": "content",
          "type": "string"
        },
        {
          "internalType": "string[]",
          "name": "tags",
          "type": "string[]"
        },
        {
          "internalType": "uint256",
          "name": "totalTrueVotes",
          "type": "uint256"
        },
        {
          "internalType": "uint256",
          "name": "totalFalseVotes",
          "type": "uint256"
        },
        {
          "internalType": "uint256",
          "name": "totalTrueStake",
          "type": "uint256"
        },
        {
          "internalType": "uint256",
          "name": "totalFalseStake",
          "type": "uint256"
        },
        {
          "internalType": "uint256",
          "name": "createdAt",
          "type": "uint256"
        },
        {
          "internalType": "uint256",
          "name": "expiresAt",
          "type": "uint256"
        },
        {
          "internalType": "bool",
          "name": "resolved",
          "type": "bool"
        },
        {
          "internalType": "bool",
          "name": "outcome",
          "type": "bool"
        },
        {
          "internalType": "uint256",
          "name": "rewardPool",
          "type": "uint256"
        }
      ],
      "stateMutability": "view",
      "type": "function"
    },
    {
      "inputs": [
        {
          "internalType": "uint256",
          "name": "rumorId",
          "type": "uint256"
        }
      ],
      "name": "getRumorVoters",
      "outputs": [
        {
          "internalType": "address[]",
          "name": "",
          "type": "address[]"
        }
      ],
      "stateMutability": "view",
      "type": "function"
    },
    {
      "inputs": [],
      "name": "getTotalRumors",
      "outputs": [
        {
          "internalType": "uint256",
          "name": "",
          "type": "uint256"
        }
      ],
      "stateMutability": "view",
      "type": "function"
    },
    {
      "inputs": [
        {
          "internalType": "address",
          "name": "user",
          "type": "address"
        }
      ],
      "name": "getUserStats",
      "outputs": [
        {
          "internalType": "uint256",
          "name": "reputation",
          "type": "uint256"
        },
        {
          "internalType": "uint256",
          "name": "totalVotes",
          "type": "uint256"
        },
        {
          "internalType": "uint256",
          "name": "correctVotes",
          "type": "uint256"
        },
        {
          "internalType": "uint256",
          "name": "accuracy",
          "type": "uint256"
        }
      ],
      "stateMutability": "view",
      "type": "function"
    },
    {
      "inputs": [
        {
          "internalType": "uint256",
          "name": "rumorId",
          "type": "uint256"
        },
        {
          "internalType": "address",
          "name": "user",
          "type": "address"
        }
      ],
      "name": "getUserVote",
      "outputs": [
        {
          "internalType": "bool",
          "name": "isTrue",
          "type": "bool"
        },
        {
          "internalType": "uint256",
          "name": "stake",
          "type": "uint256"
        },
        {
          "internalType": "bool",
          "name": "claimed",
          "type": "bool"
        },
        {
          "internalType": "uint256",
          "name": "timestamp",
          "type": "uint256"
        }
      ],
      "stateMutability": "view",
      "type": "function"
    },
    {
      "inputs": [],
      "name": "guiToken",
      "outputs": [
        {
          "internalType": "contract IERC20",
          "name": "",
          "type": "address"
        }
      ],
      "stateMutability": "view",
      "type": "function"
    },
    {
      "inputs": [],
      "name": "owner",
      "outputs": [
        {
          "internalType": "address",
          "name": "",
          "type": "address"
        }
      ],
      "stateMutability": "view",
      "type": "function"
    },
    {
      "inputs": [],
      "name": "pause",
      "outputs": [],
      "stateMutability": "nonpayable",
      "type": "function"
    },
    {
      "inputs": [],
      "name": "renounceOwnership",
      "outputs": [],
      "stateMutability": "nonpayable",
      "type": "function"
    },
    {
      "inputs": [
        {
          "internalType": "uint256",
          "name": "rumorId",
          "type": "uint256"
        },
        {
          "internalType": "bool",
          "name": "outcome",
          "type": "bool"
        }
      ],
      "name": "resolveRumor",
      "outputs": [],
      "stateMutability": "nonpayable",
      "type": "function"
    },
    {
      "inputs": [
        {
          "internalType": "uint256",
          "name": "",
          "type": "uint256"
        },
        {
          "internalType": "uint256",
          "name": "",
          "type": "uint256"
        }
      ],
      "name": "rumorVoters",
      "outputs": [
        {
          "internalType": "address",
          "name": "",
          "type": "address"
        }
      ],
      "stateMutability": "view",
      "type": "function"
    },
    {
      "inputs": [
        {
          "internalType": "uint256",
          "name": "",
          "type": "uint256"
        }
      ],
      "name": "rumors",
      "outputs": [
        {
          "internalType": "uint256",
          "name": "id",
          "type": "uint256"
        },
        {
          "internalType": "address",
          "name": "submitter",
          "type": "address"
        },
        {
          "internalType": "string",
          "name": "content",
          "type": "string"
        },
        {
          "internalType": "uint256",
          "name": "submissionFee",
          "type": "uint256"
        },
        {
          "internalType": "uint256",
          "name": "totalTrueVotes",
          "type": "uint256"
        },
        {
          "internalType": "uint256",
          "name": "totalFalseVotes",
          "type": "uint256"
        },
        {
          "internalType": "uint256",
          "name": "totalTrueStake",
          "type": "uint256"
        },
        {
          "internalType": "uint256",
          "name": "totalFalseStake",
          "type": "uint256"
        },
        {
          "internalType": "uint256",
          "name": "createdAt",
          "type": "uint256"
        },
        {
          "internalType": "uint256",
          "name": "expiresAt",
          "type": "uint256"
        },
        {
          "internalType": "bool",
          "name": "resolved",
          "type": "bool"
        },
        {
          "internalType": "bool",
          "name": "outcome",
          "type": "bool"
        },
        {
          "internalType": "uint256",
          "name": "rewardPool",
          "type": "uint256"
        }
      ],
      "stateMutability": "view",
      "type": "function"
    },
    {
      "inputs": [
        {
          "internalType": "string",
          "name": "content",
          "type": "string"
        },
        {
          "internalType": "string[]",
          "name": "tags",
          "type": "string[]"
        }
      ],
      "name": "submitRumor",
      "outputs": [
        {
          "internalType": "uint256",
          "name": "",
          "type": "uint256"
        }
      ],
      "stateMutability": "nonpayable",
      "type": "function"
    },
    {
      "inputs": [
        {
          "internalType": "address",
          "name": "",
          "type": "address"
        }
      ],
      "name": "totalVotesCount",
      "outputs": [
        {
          "internalType": "uint256",
          "name": "",
          "type": "uint256"
        }
      ],
      "stateMutability": "view",
      "type": "function"
    },
    {
      "inputs": [
        {
          "internalType": "address",
          "name": "newOwner",
          "type": "address"
        }
      ],
      "name": "transferOwnership",
      "outputs": [],
      "stateMutability": "nonpayable",
      "type": "function"
    },
    {
      "inputs": [
        {
          "internalType": "uint256",
          "name": "newWindow",
          "type": "uint256"
        }
      ],
      "name": "updateVerificationWindow",
      "outputs": [],
      "stateMutability": "nonpayable",
      "type": "function"
    },
    {
      "inputs": [
        {
          "internalType": "address",
          "name": "",
          "type": "address"
        }
      ],
      "name": "userReputation",
      "outputs": [
        {
          "internalType": "uint256",
          "name": "",
          "type": "uint256"
        }
      ],
      "stateMutability": "view",
      "type": "function"
    },
    {
      "inputs": [
        {
          "internalType": "uint256",
          "name": "rumorId",
          "type": "uint256"
        },
        {
          "internalType": "bool",
          "name": "isTrue",
          "type": "bool"
        },
        {
          "internalType": "uint256",
          "name": "stake",
          "type": "uint256"
        }
      ],
      "name": "vote",
      "outputs": [],
      "stateMutability": "nonpayable",
      "type": "function"
    },
    {
      "inputs": [
        {
          "internalType": "uint256",
          "name": "",
          "type": "uint256"
        },
        {
          "internalType": "address",
          "name": "",
          "type": "address"
        }
      ],
      "name": "votes",
      "outputs": [
        {
          "internalType": "bool",
          "name": "isTrue",
          "type": "bool"
        },
        {
          "internalType": "uint256",
          "name": "stake",
          "type": "uint256"
        },
        {
          "internalType": "bool",
          "name": "claimed",
          "type": "bool"
        },
        {
          "internalType": "uint256",
          "name": "timestamp",
          "type": "uint256"
        }
      ],
      "stateMutability": "view",
      "type": "function"
    }
  ],
  "bytecode": "0x60a03461011b57601f61227038819003918201601f19168301916001600160401b038311848410176101205780849260209460405283398101031261011b57516001600160a01b038082169182900361011b576000543360018060a01b0319821617600055604051913391167f8be0079c531659141344cd1fd0a4f28419497f9722a3daafe3b4186f6b6457e0600080a36001805581156100d95750608052604051612139908161013782396080518181816103c8015281816106a901528181610a7c01528181611325015281816113820152611a430152f35b62461bcd60e51b815260206004820152601560248201527f496e76616c696420746f6b656e206164647265737300000000000000000000006044820152606490fd5b600080fd5b634e487b7160e01b600052604160045260246000fdfe608080604052600436101561001357600080fd5b60003560e01c90816303c7881a14611c6d575080630962ef79146119115780630e776aa5146118d75780631a1f194b1461189d57806329183872146117cc578063355a34c8146117ae5780633d117257146116d15780633e8554a21461165c578063415374f914611638578063485de6ff146116085780634e43603a1461156e5780635a4507a814611550578063715018a6146114f75780637d48536d146114d45780638456cb59146114bb5780638da5cb5b1461149257806395beacd51461146f57806395beeae81461144c57806395ccea6714611354578063993c44f01461130f578063b108395a1461120b578063cfd52a3714611077578063d23254b414610ff3578063d352cad8146109b6578063d46a5d7e146105c5578063e364982014610500578063e4f34faf146102c3578063e503bb0514610289578063f198f593146102375763f2fde38b1461016957600080fd5b3461023257602036600319011261023257610182611cfe565b61018a611ec4565b6001600160a01b039081169081156101de57600054826bffffffffffffffffffffffff60a01b821617600055167f8be0079c531659141344cd1fd0a4f28419497f9722a3daafe3b4186f6b6457e0600080a3005b60405162461bcd60e51b815260206004820152602660248201527f4f776e61626c653a206e6577206f776e657220697320746865207a65726f206160448201526564647265737360d01b6064820152608490fd5b600080fd5b34610232576040366003190112610232576024356004356000526005602052604060002080548210156102325760209161027091611e96565b905460405160039290921b1c6001600160a01b03168152f35b34610232576020366003190112610232576001600160a01b036102aa611cfe565b1660005260066020526020604060002054604051908152f35b34610232576040366003190112610232576004356102df611e87565b6102e7611ec4565b6102f46002548310611fb7565b81600052602060038152604060002090600b8201805460ff81166104c857600a840154421061048d5760019061ff0086151560081b169061ffff1916171790556103476007830154600884015490611f89565b918383600c83015561038c575b505060408051921515835260208301919091527f43139f0fa3946b8523e56b935bb1e8cd019b87110aa7e8ebb876a752ca46e10391a2005b600101805460405163a9059cbb60e01b81526001600160a01b03918216600482015268056bc75e2d6310000060248201529291828460448160007f000000000000000000000000000000000000000000000000000000000000000087165af193841561048157600694610454575b5054166000525260406000209182546002810180911161043e577f43139f0fa3946b8523e56b935bb1e8cd019b87110aa7e8ebb876a752ca46e10393559184610354565b634e487b7160e01b600052601160045260246000fd5b61047390843d861161047a575b61046b8183611d7f565b810190611f1c565b50876103fa565b503d610461565b6040513d6000823e3d90fd5b60405162461bcd60e51b8152600481018490526013602482015272566f74696e67207374696c6c2061637469766560681b6044820152606490fd5b60405162461bcd60e51b815260048101849052601060248201526f105b1c9958591e481c995cdbdb1d995960821b6044820152606490fd5b3461023257602080600319360112610232576004356105226002548210611fb7565b60005260058152604060002060405190818382549182815201908192600052846000209060005b868282106105a857868661055f82880383611d7f565b604051928392818401908285525180915260408401929160005b82811061058857505050500390f35b83516001600160a01b031685528695509381019392810192600101610579565b83546001600160a01b031685529093019260019283019201610549565b34610232576060366003190112610232576004356105e1611e87565b9060448035906105f46002548410611fb7565b82600052600391602092808452600a6040600020015442101561097c578460005280845260ff600b604060002001541661093f57670de0b6b3a76400008210158061092d575b156108f257846000526004845260406000203360005284526001604060002001546108be57600085815281855260409020600101546001600160a01b03939084163314610883576040516323b872dd60e01b8152336004820152306024820152908101839052848160648160007f000000000000000000000000000000000000000000000000000000000000000089165af18015610481576106e491600091610866575b50611f34565b6040516080810181811067ffffffffffffffff8211176108505760405286151581528185820184815261076f604084016000815260608501924284528a60005260048a526040600020336000528a52610751604060002096511515879060ff801983541691151516179055565b516001860155511515600285019060ff801983541691151516179055565b519101558460005260058452604060002093845493600160401b851015610850576107c4857fcbdf6214089cba887ecbf35a0b6a734589959c9763342c756bb2a80ca2bc9f6e97600161082598018155611e96565b8192915490851b9133831b921b1916179055856000525260406000208560001461082a57806005600792016107f98154611ff6565b905501610807828254611f89565b90555b60408051951515865260208601919091523394918291820190565b0390a3005b8060066008920161083b8154611ff6565b905501610849828254611f89565b905561080a565b634e487b7160e01b600052604160045260246000fd5b61087d9150863d881161047a5761046b8183611d7f565b886106de565b84745375626d69747465722063616e6e6f7420766f746560581b6064926040519262461bcd60e51b8452600484015260156024840152820152fd5b60405162461bcd60e51b815260048101859052600d60248201526c105b1c9958591e481d9bdd1959609a1b81850152606490fd5b60405162461bcd60e51b8152600481018590526014602482015273125b9d985b1a59081cdd185ad948185b5bdd5b9d60621b81850152606490fd5b50674563918244f4000082111561063a565b60405162461bcd60e51b8152600481018590526016602482015275149d5b5bdc88185b1c9958591e481c995cdbdb1d995960521b81850152606490fd5b60405162461bcd60e51b8152600481018590526013602482015272159bdd1a5b99c81c195c9a5bd908195b991959606a1b81850152606490fd5b346102325760403660031901126102325767ffffffffffffffff60043511610232573660236004350112156102325767ffffffffffffffff600435600401351161023257366024600435600401356004350101116102325760243567ffffffffffffffff811161023257610a2e903690600401611d14565b9060043560040135151580610fe1575b15610fa35760058211610f6e576040516323b872dd60e01b8152336004820152306024820152678ac7230489e80000604482015260208160648160007f00000000000000000000000000000000000000000000000000000000000000006001600160a01b03165af1801561048157610abd91600091610f4f5750611f34565b6002549060018201600255816000526003602052604060002082815560018101336bffffffffffffffffffffffff60a01b825416179055610b016002820154611d45565b601f8111610f0e575b506000601f6004356004013511600114610e825760009060043560040135610e72575b506004356004013560011b906000196004356004013560031b1c19161760028201555b600160401b8411610850576003810154846003830155808510610dfa575b50816003820160005260206000206000915b868310610c8e57505050678ac7230489e8000060048201554260098201556201518042019081421161043e57600a9094929401556040519260408452610bd56040850160043560040135602460043501611f96565b918483036020860152808352602083019060208160051b85010193836000915b838310610c2f5760208833817f134c7d1f1615b0ac710e6435f1022e5f8e601e9707d11b55cac26f7daf45be038d8c038ea3604051908152f35b909192939495601f198282030186528635601e1984360301811215610232578301906020823592019167ffffffffffffffff811161023257803603831361023257610c806020928392600195611f96565b980196019493019190610bf5565b601e1985360301813512156102325767ffffffffffffffff81358601351161023257803585018035360360209091011361023257610ccc8254611d45565b601f8111610db9575b506000601f823587013511600114610d32576020600192839260009082358a0135610d22575b508135890135841b9060001983358b013560031b1c19161785555b01920192019190610b80565b83915082358a010101358b610cfb565b8260005260206000209060005b8335880135601f19168110610d9c5750600192839260209282358a0135601f19811610610d79575b5050828135890135811b018555610d16565b8360001960f885358d013560031b161c199184358c010101351690558a80610d67565b9091602060018192828688358d0101013581550193019101610d3f565b6000838152602090819020610dea928435890135601f810160051c83019311610df0575b601f0160051c0190611f72565b87610cd5565b9091508190610ddd565b600382016000526020600020908582015b8183018110610e1b575050610b6e565b80610e2860019254611d45565b80610e35575b5001610e0b565b601f81118314610e4b5750600081555b88610e2e565b600090828252610e69601f60208420920160051c8201858301611f72565b81835555610e45565b6024915060043501013585610b2d565b6002820160005260206000209060005b600480350135601f19168110610ef15750600480350135601f19811610610ecc575b5050600160043560040135811b016002820155610b50565b602460001960f86004356004013560031b161c19916004350101351690558480610eb4565b909160206001819260248660043501013581550193019101610e92565b610f4990600283016000526020600020601f600435600401350160051c81019160206004356004013510610df057601f0160051c0190611f72565b84610b0a565b610f68915060203d60201161047a5761046b8183611d7f565b846106de565b60405162461bcd60e51b815260206004820152600d60248201526c546f6f206d616e79207461677360981b6044820152606490fd5b60405162461bcd60e51b8152602060048201526016602482015275092dcecc2d8d2c840c6dedce8cadce840d8cadccee8d60531b6044820152606490fd5b506101f4600435600401351115610a3e565b346102325760403660031901126102325761100c611ce8565b600435600052600460205260406000209060018060a01b0316600052602052604060002060ff815416611073600183015492600360ff6002830154169101549060405194859485909493926060926080830196151583526020830152151560408201520152565b0390f35b3461023257602080600319360112610232576004356110996002548210611fb7565b60005260038152604060002060018060a01b03600182015416906003810190600581015460068201546007830154600884015490600985015492600a86015494600b870154996110f06002600c8a01549901611da1565b908954916110fd836120a5565b9261110b6040519485611d7f565b808452828401809c60005283600020846000925b8484106111ed575050505050611147906040519c8d52828d61018091829101528d0190611e47565b918b830360408d0152519081835280830192818360051b8201019b936000915b8483106111be575050505050509160ff959391899a959360608b015260808a015260a089015260c088015260e0870152610100860152818116151561012086015260081c1615156101408401526101608301520390f35b90919293949c84808f6001936111dd91601f1987830301885251611e47565b9f01930193019194939290611167565b60019182916111fb85611da1565b815201920192019190859061111f565b3461023257600036600319011261023257600254611228816120bd565b9060009060005b8181106112b4575050611241816120bd565b9160005b8281106112905783604051809160208083018184528251809152816040850193019160005b82811061127957505050500390f35b83518552869550938101939281019260010161126a565b8061129e6112af92846120ef565b516112a982876120ef565b52611ff6565b611245565b806000526003602052604060002060ff600b82015416159081611301575b506112e6575b6112e190611ff6565b61122f565b916112f981846112a96112e194886120ef565b9290506112d8565b600a915001544210856112d2565b34610232576000366003190112610232576040517f00000000000000000000000000000000000000000000000000000000000000006001600160a01b03168152602090f35b346102325760403660031901126102325761136d611cfe565b611375611ec4565b6001600160a01b039081167f000000000000000000000000000000000000000000000000000000000000000082168114611407576000805460405163a9059cbb60e01b815293166001600160a01b03166004840152602480359084015260209183918290816044810103925af18015610481576113ee57005b6114059060203d811161047a5761046b8183611d7f565b005b60405162461bcd60e51b815260206004820152601a60248201527f43616e6e6f742077697468647261772047554920746f6b656e730000000000006044820152606490fd5b34610232576000366003190112610232576020604051670de0b6b3a76400008152f35b34610232576000366003190112610232576020604051674563918244f400008152f35b34610232576000366003190112610232576000546040516001600160a01b039091168152602090f35b3461023257600036600319011261023257611405611ec4565b34610232576000366003190112610232576020604051678ac7230489e800008152f35b3461023257600036600319011261023257611510611ec4565b600080546001600160a01b0319811682556001600160a01b03167f8be0079c531659141344cd1fd0a4f28419497f9722a3daafe3b4186f6b6457e08280a3005b34610232576000366003190112610232576020600254604051908152f35b34610232576020366003190112610232576001600160a01b0361158f611cfe565b168060005260076020526040600020546008602052604060002054918115156000146115fd576127109283810293818504148115171561043e576115d583608095612005565b915b600052600660205260406000205492604051938452602084015260408301526060820152f35b6080926000916115d7565b3461023257604036600319011261023257602061162e611626611ce8565b600435612035565b6040519015158152f35b3461023257600036600319011261023257602060405168056bc75e2d631000008152f35b3461023257602036600319011261023257600435611678611ec4565b610e1081101590816116c3575b501561168d57005b60405162461bcd60e51b815260206004820152600e60248201526d496e76616c69642077696e646f7760901b6044820152606490fd5b62093a809150111581611685565b346102325760203660031901126102325760043560005260036020526020604060002080549060018060a01b0360018201541660ff61171260028401611da1565b92600481015493600582015460068301546007840154600885015491600986015493611767600a88015496600c600b8a01549901549a6040519e8f9e8f908152015260408d6101a091829101528d0190611e47565b9960608c015260808b015260a08a015260c089015260e0880152610100870152610120860152818116151561014086015260081c1615156101608401526101808301520390f35b34610232576000366003190112610232576020604051620151808152f35b346102325760203660031901126102325767ffffffffffffffff600435818111610232576117fe903690600401611d14565b60005b81811061180a57005b61181f33611819838587612025565b35612035565b611832575b61182d90611ff6565b611801565b61183d818385612025565b35303b156102325760405190630962ef7960e01b825260048201526024600082828183305af1801561048157611875575b5050611824565b858211611889575060405261182d8561186e565b634e487b7160e01b60009081526041600452fd5b34610232576020366003190112610232576001600160a01b036118be611cfe565b1660005260086020526020604060002054604051908152f35b34610232576020366003190112610232576001600160a01b036118f8611cfe565b1660005260076020526020604060002054604051908152f35b346102325760208060031936011261023257600435906001916002835414611c2857600283556119446002548210611fb7565b80600052600382526040600020600b810160ff81541615611bee578260005260048452604060002033600052845260406000209085820191825415611bb95760028101805460ff8116611b8257889060ff1916179055336000526007865260406000206119b18154611ff6565b905560ff600091541660ff835460081c16151590151514600014611b0657505460081c60ff16918215611afb576007810154925b15611af15760080154905b54908181029080820483149015171561043e57611a1692611a1091612005565b90611f89565b60405163a9059cbb60e01b8152336004820152602481018290529092808260448160006001600160a01b037f0000000000000000000000000000000000000000000000000000000000000000165af1918215610481577f3300bdb359cfb956935bca32e9db727413eab1ca84341f2e36caea85bb79696892611ad4575b5033600052600681526040600020611aab8154611ff6565b905533600052600881526040600020611ac48154611ff6565b90555b6040519384523393a38055005b611aea90823d841161047a5761046b8183611d7f565b5085611a93565b60070154906119f0565b6008810154926119e5565b9492505050336000526006815260406000209081549182158015611b4f575b50507f3300bdb359cfb956935bca32e9db727413eab1ca84341f2e36caea85bb7969689150611ac7565b61043e577f3300bdb359cfb956935bca32e9db727413eab1ca84341f2e36caea85bb796968926000190190558580611b25565b60405162461bcd60e51b815260048101899052600f60248201526e105b1c9958591e4818db185a5b5959608a1b6044820152606490fd5b60405162461bcd60e51b815260048101879052600d60248201526c139bc81d9bdd1948199bdd5b99609a1b6044820152606490fd5b60405162461bcd60e51b8152600481018590526012602482015271149d5b5bdc881b9bdd081c995cdbdb1d995960721b6044820152606490fd5b60405162461bcd60e51b815260048101839052601f60248201527f5265656e7472616e637947756172643a207265656e7472616e742063616c6c006044820152606490fd5b3461023257604036600319011261023257611c86611ce8565b600435600052600460205260406000209060018060a01b031660005260205280611073604060002060ff815416906001810154600360ff6002840154169201549285909493926060926080830196151583526020830152151560408201520152565b602435906001600160a01b038216820361023257565b600435906001600160a01b038216820361023257565b9181601f840112156102325782359167ffffffffffffffff8311610232576020808501948460051b01011161023257565b90600182811c92168015611d75575b6020831014611d5f57565b634e487b7160e01b600052602260045260246000fd5b91607f1691611d54565b90601f8019910116810190811067ffffffffffffffff82111761085057604052565b9060405191826000825492611db584611d45565b908184526001948581169081600014611e245750600114611de1575b5050611ddf92500383611d7f565b565b9093915060005260209081600020936000915b818310611e0c575050611ddf93508201013880611dd1565b85548884018501529485019487945091830191611df4565b915050611ddf94506020925060ff191682840152151560051b8201013880611dd1565b919082519283825260005b848110611e73575050826000602080949584010152601f8019910116010190565b602081830181015184830182015201611e52565b60243590811515820361023257565b8054821015611eae5760005260206000200190600090565b634e487b7160e01b600052603260045260246000fd5b6000546001600160a01b03163303611ed857565b606460405162461bcd60e51b815260206004820152602060248201527f4f776e61626c653a2063616c6c6572206973206e6f7420746865206f776e65726044820152fd5b90816020910312610232575180151581036102325790565b15611f3b57565b60405162461bcd60e51b815260206004820152600f60248201526e151c985b9cd9995c8819985a5b1959608a1b6044820152606490fd5b818110611f7d575050565b60008155600101611f72565b9190820180921161043e57565b908060209392818452848401376000828201840152601f01601f1916010190565b15611fbe57565b60405162461bcd60e51b815260206004820152601060248201526f125b9d985b1a59081c9d5b5bdc88125160821b6044820152606490fd5b600019811461043e5760010190565b811561200f570490565b634e487b7160e01b600052601260045260246000fd5b9190811015611eae5760051b0190565b60025481101561209e576000526003602052604060002090600460205260406000209060018060a01b031660005260205260ff600b6040600020920154169081612090575b81612083575090565b60ff915060020154161590565b60018101541515915061207a565b5050600090565b67ffffffffffffffff81116108505760051b60200190565b906120c7826120a5565b6120d46040519182611d7f565b82815280926120e5601f19916120a5565b0190602036910137565b8051821015611eae5760209160051b01019056fea2646970667358221220f06058c23e95ade5c0505fd67fd892247d6d1171c36495b1e700714599b5678c64736f6c63430008130033",
  "linkReferences": {},
  "deployedLinkReferences": {}
}