{"contracts/RumorVerification.sol":{"RumorVerification":{"abi":[{"inputs":[{"internalType":"address","name":"_guiToken","type":"address"}],"stateMutability":"nonpayable","type":"constructor"},{"anonymous":false,"inputs":[{"indexed":true,"internalType":"address","name":"previousOwner","type":"address"},{"indexed":true,"internalType":"address","name":"newOwner","type":"address"}],"name":"OwnershipTransferred","type":"event"},{"anonymous":false,"inputs":[{"indexed":true,"internalType":"uint256","name":"rumorId","type":"uint256"},{"indexed":true,"internalType":"address","name":"user","type":"address"},{"indexed":false,"internalType":"uint256","name":"amount","type":"uint256"}],"name":"RewardsClaimed","type":"event"},{"anonymous":false,"inputs":[{"indexed":true,"internalType":"uint256","name":"rumorId","type":"uint256"},{"indexed":false,"internalType":"bool","name":"outcome","type":"bool"},{"indexed":false,"internalType":"uint256","name":"totalStake","type":"uint256"}],"name":"RumorResolved","type":"event"},{"anonymous":false,"inputs":[{"indexed":true,"internalType":"uint256","name":"rumorId","type":"uint256"},{"indexed":true,"internalType":"address","name":"submitter","type":"address"},{"indexed":false,"internalType":"string","name":"content","type":"string"},{"indexed":false,"internalType":"string[]","name":"tags","type":"string[]"}],"name":"RumorSubmitted","type":"event"},{"anonymous":false,"inputs":[{"indexed":true,"internalType":"uint256","name":"rumorId","type":"uint256"},{"indexed":true,"internalType":"address","name":"voter","type":"address"},{"indexed":false,"internalType":"bool","name":"isTrue","type":"bool"},{"indexed":false,"internalType":"uint256","name":"stake","type":"uint256"}],"name":"VoteCast","type":"event"},{"inputs":[],"name":"MAX_VOTE_STAKE","outputs":[{"internalType":"uint256","name":"","type":"uint256"}],"stateMutability":"view","type":"function"},{"inputs":[],"name":"MIN_VOTE_STAKE","outputs":[{"internalType":"uint256","name":"","type":"uint256"}],"stateMutability":"view","type":"function"},{"inputs":[],"name":"SUBMISSION_FEE","outputs":[{"internalType":"uint256","name":"","type":"uint256"}],"stateMutability":"view","type":"function"},{"inputs":[],"name":"SUBMITTER_BONUS","outputs":[{"internalType":"uint256","name":"","type":"uint256"}],"stateMutability":"view","type":"function"},{"inputs":[],"name":"VERIFICATION_WINDOW","outputs":[{"internalType":"uint256","name":"","type":"uint256"}],"stateMutability":"view","type":"function"},{"inputs":[{"internalType":"uint256[]","name":"rumorIds","type":"uint256[]"}],"name":"batchClaimRewards","outputs":[],"stateMutability":"nonpayable","type":"function"},{"inputs":[{"internalType":"uint256","name":"rumorId","type":"uint256"},{"internalType":"address","name":"user","type":"address"}],"name":"canClaimReward","outputs":[{"internalType":"bool","name":"","type":"bool"}],"stateMutability":"view","type":"function"},{"inputs":[{"internalType":"uint256","name":"rumorId","type":"uint256"}],"name":"claimRewards","outputs":[],"stateMutability":"nonpayable","type":"function"},{"inputs":[{"internalType":"address","name":"","type":"address"}],"name":"correctVotesCount","outputs":[{"internalType":"uint256","name":"","type":"uint256"}],"stateMutability":"view","type":"function"},{"inputs":[{"internalType":"address","name":"token","type":"address"},{"internalType":"uint256","name":"amount","type":"uint256"}],"name":"emergencyWithdraw","outputs":[],"stateMutability":"nonpayable","type":"function"},{"inputs":[],"name":"getActiveRumors","outputs":[{"internalType":"uint256[]","name":"","type":"uint256[]"}],"stateMutability":"view","type":"function"},{"inputs":[{"internalType":"uint256","name":"rumorId","type":"uint256"}],"name":"getRumorDetails","outputs":[{"internalType":"address","name":"submitter","type":"address"},{"internalType":"string","name":"content","type":"string"},{"internalType":"string[]","name":"tags","type":"string[]"},{"internalType":"uint256","name":"totalTrueVotes","type":"uint256"},{"internalType":"uint256","name":"totalFalseVotes","type":"uint256"},{"internalType":"uint256","name":"totalTrueStake","type":"uint256"},{"internalType":"uint256","name":"totalFalseStake","type":"uint256"},{"internalType":"uint256","name":"createdAt","type":"uint256"},{"internalType":"uint256","name":"expiresAt","type":"uint256"},{"internalType":"bool","name":"resolved","type":"bool"},{"internalType":"bool","name":"outcome","type":"bool"},{"internalType":"uint256","name":"rewardPool","type":"uint256"}],"stateMutability":"view","type":"function"},{"inputs":[{"internalType":"uint256","name":"rumorId","type":"uint256"}],"name":"getRumorVoters","outputs":[{"internalType":"address[]","name":"","type":"address[]"}],"stateMutability":"view","type":"function"},{"inputs":[],"name":"getTotalRumors","outputs":[{"internalType":"uint256","name":"","type":"uint256"}],"stateMutability":"view","type":"function"},{"inputs":[{"internalType":"address","name":"user","type":"address"}],"name":"getUserStats","outputs":[{"internalType":"uint256","name":"reputation","type":"uint256"},{"internalType":"uint256","name":"totalVotes","type":"uint256"},{"internalType":"uint256","name":"correctVotes","type":"uint256"},{"internalType":"uint256","name":"accuracy","type":"uint256"}],"stateMutability":"view","type":"function"},{"inputs":[{"internalType":"uint256","name":"rumorId","type":"uint256"},{"internalType":"address","name":"user","type":"address"}],"name":"getUserVote","outputs":[{"internalType":"bool","name":"isTrue","type":"bool"},{"internalType":"uint256","name":"stake","type":"uint256"},{"internalType":"bool","name":"claimed","type":"bool"},{"internalType":"uint256","name":"timestamp","type":"uint256"}],"stateMutability":"view","type":"function"},{"inputs":[],"name":"guiToken","outputs":[{"internalType":"contract IERC20","name":"","type":"address"}],"stateMutability":"view","type":"function"},{"inputs":[],"name":"owner","outputs":[{"internalType":"address","name":"","type":"address"}],"stateMutability":"view","type":"function"},{"inputs":[],"name":"pause","outputs":[],"stateMutability":"nonpayable","type":"function"},{"inputs":[],"name":"renounceOwnership","outputs":[],"stateMutability":"nonpayable","type":"function"},{"inputs":[{"internalType":"uint256","name":"rumorId","type":"uint256"},{"internalType":"bool","name":"outcome","type":"bool"}],"name":"resolveRumor","outputs":[],"stateMutability":"nonpayable","type":"function"},{"inputs":[{"internalType":"uint256","name":"","type":"uint256"},{"internalType":"uint256","name":"","type":"uint256"}],"name":"rumorVoters","outputs":[{"internalType":"address","name":"","type":"address"}],"stateMutability":"view","type":"function"},{"inputs":[{"internalType":"uint256","name":"","type":"uint256"}],"name":"rumors","outputs":[{"internalType":"uint256","name":"id","type":"uint256"},{"internalType":"address","name":"submitter","type":"address"},{"internalType":"string","name":"content","type":"string"},{"internalType":"uint256","name":"submissionFee","type":"uint256"},{"internalType":"uint256","name":"totalTrueVotes","type":"uint256"},{"internalType":"uint256","name":"totalFalseVotes","type":"uint256"},{"internalType":"uint256","name":"totalTrueStake","type":"uint256"},{"internalType":"uint256","name":"totalFalseStake","type":"uint256"},{"internalType":"uint256","name":"createdAt","type":"uint256"},{"internalType":"uint256","name":"expiresAt","type":"uint256"},{"internalType":"bool","name":"resolved","type":"bool"},{"internalType":"bool","name":"outcome","type":"bool"},{"internalType":"uint256","name":"rewardPool","type":"uint256"}],"stateMutability":"view","type":"function"},{"inputs":[{"internalType":"string","name":"content","type":"string"},{"internalType":"string[]","name":"tags","type":"string[]"}],"name":"submitRumor","outputs":[{"internalType":"uint256","name":"","type":"uint256"}],"stateMutability":"nonpayable","type":"function"},{"inputs":[{"internalType":"address","name":"","type":"address"}],"name":"totalVotesCount","outputs":[{"internalType":"uint256","name":"","type":"uint256"}],"stateMutability":"view","type":"function"},{"inputs":[{"internalType":"address","name":"newOwner","type":"address"}],"name":"transferOwnership","outputs":[],"stateMutability":"nonpayable","type":"function"},{"inputs":[{"internalType":"uint256","name":"newWindow","type":"uint256"}],"name":"updateVerificationWindow","outputs":[],"stateMutability":"nonpayable","type":"function"},{"inputs":[{"internalType":"address","name":"","type":"address"}],"name":"userReputation","outputs":[{"internalType":"uint256","name":"","type":"uint256"}],"stateMutability":"view","type":"function"},{"inputs":[{"internalType":"uint256","name":"rumorId","type":"uint256"},{"internalType":"bool","name":"isTrue","type":"bool"},{"internalType":"uint256","name":"stake","type":"uint256"}],"name":"vote","outputs":[],"stateMutability":"nonpayable","type":"function"},{"inputs":[{"internalType":"uint256","name":"","type":"uint256"},{"internalType":"address","name":"","type":"address"}],"name":"votes","outputs":[{"internalType":"bool","name":"isTrue","type":"bool"},{"internalType":"uint256","name":"stake","type":"uint256"},{"internalType":"bool","name":"claimed","type":"bool"},{"internalType":"uint256","name":"timestamp","type":"uint256"}],"stateMutability":"view","type":"function"}],"evm":{"bytecode":{"linkReferences":{},"object":"60a03461011b57601f61227038819003918201601f19168301916001600160401b038311848410176101205780849260209460405283398101031261011b57516001600160a01b038082169182900361011b576000543360018060a01b0319821617600055604051913391167f8be0079c531659141344cd1fd0a4f28419497f9722a3daafe3b4186f6b6457e0600080a36001805581156100d95750608052604051612139908161013782396080518181816103c8015281816106a901528181610a7c01528181611325015281816113820152611a430152f35b62461bcd60e51b815260206004820152601560248201527f496e76616c696420746f6b656e206164647265737300000000000000000000006044820152606490fd5b600080fd5b634e487b7160e01b600052604160045260246000fdfe608080604052600436101561001357600080fd5b60003560e01c90816303c7881a14611c6d575080630962ef79146119115780630e776aa5146118d75780631a1f194b1461189d57806329183872146117cc578063355a34c8146117ae5780633d117257146116d15780633e8554a21461165c578063415374f914611638578063485de6ff146116085780634e43603a1461156e5780635a4507a814611550578063715018a6146114f75780637d48536d146114d45780638456cb59146114bb5780638da5cb5b1461149257806395beacd51461146f57806395beeae81461144c57806395ccea6714611354578063993c44f01461130f578063b108395a1461120b578063cfd52a3714611077578063d23254b414610ff3578063d352cad8146109b6578063d46a5d7e146105c5578063e364982014610500578063e4f34faf146102c3578063e503bb0514610289578063f198f593146102375763f2fde38b1461016957600080fd5b3461023257602036600319011261023257610182611cfe565b61018a611ec4565b6001600160a01b039081169081156101de57600054826bffffffffffffffffffffffff60a01b821617600055167f8be0079c531659141344cd1fd0a4f28419497f9722a3daafe3b4186f6b6457e0600080a3005b60405162461bcd60e51b815260206004820152602660248201527f4f776e61626c653a206e6577206f776e657220697320746865207a65726f206160448201526564647265737360d01b6064820152608490fd5b600080fd5b34610232576040366003190112610232576024356004356000526005602052604060002080548210156102325760209161027091611e96565b905460405160039290921b1c6001600160a01b03168152f35b34610232576020366003190112610232576001600160a01b036102aa611cfe565b1660005260066020526020604060002054604051908152f35b34610232576040366003190112610232576004356102df611e87565b6102e7611ec4565b6102f46002548310611fb7565b81600052602060038152604060002090600b8201805460ff81166104c857600a840154421061048d5760019061ff0086151560081b169061ffff1916171790556103476007830154600884015490611f89565b918383600c83015561038c575b505060408051921515835260208301919091527f43139f0fa3946b8523e56b935bb1e8cd019b87110aa7e8ebb876a752ca46e10391a2005b600101805460405163a9059cbb60e01b81526001600160a01b03918216600482015268056bc75e2d6310000060248201529291828460448160007f000000000000000000000000000000000000000000000000000000000000000087165af193841561048157600694610454575b5054166000525260406000209182546002810180911161043e577f43139f0fa3946b8523e56b935bb1e8cd019b87110aa7e8ebb876a752ca46e10393559184610354565b634e487b7160e01b600052601160045260246000fd5b61047390843d861161047a575b61046b8183611d7f565b810190611f1c565b50876103fa565b503d610461565b6040513d6000823e3d90fd5b60405162461bcd60e51b8152600481018490526013602482015272566f74696e67207374696c6c2061637469766560681b6044820152606490fd5b60405162461bcd60e51b815260048101849052601060248201526f105b1c9958591e481c995cdbdb1d995960821b6044820152606490fd5b3461023257602080600319360112610232576004356105226002548210611fb7565b60005260058152604060002060405190818382549182815201908192600052846000209060005b868282106105a857868661055f82880383611d7f565b604051928392818401908285525180915260408401929160005b82811061058857505050500390f35b83516001600160a01b031685528695509381019392810192600101610579565b83546001600160a01b031685529093019260019283019201610549565b34610232576060366003190112610232576004356105e1611e87565b9060448035906105f46002548410611fb7565b82600052600391602092808452600a6040600020015442101561097c578460005280845260ff600b604060002001541661093f57670de0b6b3a76400008210158061092d575b156108f257846000526004845260406000203360005284526001604060002001546108be57600085815281855260409020600101546001600160a01b03939084163314610883576040516323b872dd60e01b8152336004820152306024820152908101839052848160648160007f000000000000000000000000000000000000000000000000000000000000000089165af18015610481576106e491600091610866575b50611f34565b6040516080810181811067ffffffffffffffff8211176108505760405286151581528185820184815261076f604084016000815260608501924284528a60005260048a526040600020336000528a52610751604060002096511515879060ff801983541691151516179055565b516001860155511515600285019060ff801983541691151516179055565b519101558460005260058452604060002093845493600160401b851015610850576107c4857fcbdf6214089cba887ecbf35a0b6a734589959c9763342c756bb2a80ca2bc9f6e97600161082598018155611e96565b8192915490851b9133831b921b1916179055856000525260406000208560001461082a57806005600792016107f98154611ff6565b905501610807828254611f89565b90555b60408051951515865260208601919091523394918291820190565b0390a3005b8060066008920161083b8154611ff6565b905501610849828254611f89565b905561080a565b634e487b7160e01b600052604160045260246000fd5b61087d9150863d881161047a5761046b8183611d7f565b886106de565b84745375626d69747465722063616e6e6f7420766f746560581b6064926040519262461bcd60e51b8452600484015260156024840152820152fd5b60405162461bcd60e51b815260048101859052600d60248201526c105b1c9958591e481d9bdd1959609a1b81850152606490fd5b60405162461bcd60e51b8152600481018590526014602482015273125b9d985b1a59081cdd185ad948185b5bdd5b9d60621b81850152606490fd5b50674563918244f4000082111561063a565b60405162461bcd60e51b8152600481018590526016602482015275149d5b5bdc88185b1c9958591e481c995cdbdb1d995960521b81850152606490fd5b60405162461bcd60e51b8152600481018590526013602482015272159bdd1a5b99c81c195c9a5bd908195b991959606a1b81850152606490fd5b346102325760403660031901126102325767ffffffffffffffff60043511610232573660236004350112156102325767ffffffffffffffff600435600401351161023257366024600435600401356004350101116102325760243567ffffffffffffffff811161023257610a2e903690600401611d14565b9060043560040135151580610fe1575b15610fa35760058211610f6e576040516323b872dd60e01b8152336004820152306024820152678ac7230489e80000604482015260208160648160007f00000000000000000000000000000000000000000000000000000000000000006001600160a01b03165af1801561048157610abd91600091610f4f5750611f34565b6002549060018201600255816000526003602052604060002082815560018101336bffffffffffffffffffffffff60a01b825416179055610b016002820154611d45565b601f8111610f0e575b506000601f6004356004013511600114610e825760009060043560040135610e72575b506004356004013560011b906000196004356004013560031b1c19161760028201555b600160401b8411610850576003810154846003830155808510610dfa575b50816003820160005260206000206000915b868310610c8e57505050678ac7230489e8000060048201554260098201556201518042019081421161043e57600a9094929401556040519260408452610bd56040850160043560040135602460043501611f96565b918483036020860152808352602083019060208160051b85010193836000915b838310610c2f5760208833817f134c7d1f1615b0ac710e6435f1022e5f8e601e9707d11b55cac26f7daf45be038d8c038ea3604051908152f35b909192939495601f198282030186528635601e1984360301811215610232578301906020823592019167ffffffffffffffff811161023257803603831361023257610c806020928392600195611f96565b980196019493019190610bf5565b601e1985360301813512156102325767ffffffffffffffff81358601351161023257803585018035360360209091011361023257610ccc8254611d45565b601f8111610db9575b506000601f823587013511600114610d32576020600192839260009082358a0135610d22575b508135890135841b9060001983358b013560031b1c19161785555b01920192019190610b80565b83915082358a010101358b610cfb565b8260005260206000209060005b8335880135601f19168110610d9c5750600192839260209282358a0135601f19811610610d79575b5050828135890135811b018555610d16565b8360001960f885358d013560031b161c199184358c010101351690558a80610d67565b9091602060018192828688358d0101013581550193019101610d3f565b6000838152602090819020610dea928435890135601f810160051c83019311610df0575b601f0160051c0190611f72565b87610cd5565b9091508190610ddd565b600382016000526020600020908582015b8183018110610e1b575050610b6e565b80610e2860019254611d45565b80610e35575b5001610e0b565b601f81118314610e4b5750600081555b88610e2e565b600090828252610e69601f60208420920160051c8201858301611f72565b81835555610e45565b6024915060043501013585610b2d565b6002820160005260206000209060005b600480350135601f19168110610ef15750600480350135601f19811610610ecc575b5050600160043560040135811b016002820155610b50565b602460001960f86004356004013560031b161c19916004350101351690558480610eb4565b909160206001819260248660043501013581550193019101610e92565b610f4990600283016000526020600020601f600435600401350160051c81019160206004356004013510610df057601f0160051c0190611f72565b84610b0a565b610f68915060203d60201161047a5761046b8183611d7f565b846106de565b60405162461bcd60e51b815260206004820152600d60248201526c546f6f206d616e79207461677360981b6044820152606490fd5b60405162461bcd60e51b8152602060048201526016602482015275092dcecc2d8d2c840c6dedce8cadce840d8cadccee8d60531b6044820152606490fd5b506101f4600435600401351115610a3e565b346102325760403660031901126102325761100c611ce8565b600435600052600460205260406000209060018060a01b0316600052602052604060002060ff815416611073600183015492600360ff6002830154169101549060405194859485909493926060926080830196151583526020830152151560408201520152565b0390f35b3461023257602080600319360112610232576004356110996002548210611fb7565b60005260038152604060002060018060a01b03600182015416906003810190600581015460068201546007830154600884015490600985015492600a86015494600b870154996110f06002600c8a01549901611da1565b908954916110fd836120a5565b9261110b6040519485611d7f565b808452828401809c60005283600020846000925b8484106111ed575050505050611147906040519c8d52828d61018091829101528d0190611e47565b918b830360408d0152519081835280830192818360051b8201019b936000915b8483106111be575050505050509160ff959391899a959360608b015260808a015260a089015260c088015260e0870152610100860152818116151561012086015260081c1615156101408401526101608301520390f35b90919293949c84808f6001936111dd91601f1987830301885251611e47565b9f01930193019194939290611167565b60019182916111fb85611da1565b815201920192019190859061111f565b3461023257600036600319011261023257600254611228816120bd565b9060009060005b8181106112b4575050611241816120bd565b9160005b8281106112905783604051809160208083018184528251809152816040850193019160005b82811061127957505050500390f35b83518552869550938101939281019260010161126a565b8061129e6112af92846120ef565b516112a982876120ef565b52611ff6565b611245565b806000526003602052604060002060ff600b82015416159081611301575b506112e6575b6112e190611ff6565b61122f565b916112f981846112a96112e194886120ef565b9290506112d8565b600a915001544210856112d2565b34610232576000366003190112610232576040517f00000000000000000000000000000000000000000000000000000000000000006001600160a01b03168152602090f35b346102325760403660031901126102325761136d611cfe565b611375611ec4565b6001600160a01b039081167f000000000000000000000000000000000000000000000000000000000000000082168114611407576000805460405163a9059cbb60e01b815293166001600160a01b03166004840152602480359084015260209183918290816044810103925af18015610481576113ee57005b6114059060203d811161047a5761046b8183611d7f565b005b60405162461bcd60e51b815260206004820152601a60248201527f43616e6e6f742077697468647261772047554920746f6b656e730000000000006044820152606490fd5b34610232576000366003190112610232576020604051670de0b6b3a76400008152f35b34610232576000366003190112610232576020604051674563918244f400008152f35b34610232576000366003190112610232576000546040516001600160a01b039091168152602090f35b3461023257600036600319011261023257611405611ec4565b34610232576000366003190112610232576020604051678ac7230489e800008152f35b3461023257600036600319011261023257611510611ec4565b600080546001600160a01b0319811682556001600160a01b03167f8be0079c531659141344cd1fd0a4f28419497f9722a3daafe3b4186f6b6457e08280a3005b34610232576000366003190112610232576020600254604051908152f35b34610232576020366003190112610232576001600160a01b0361158f611cfe565b168060005260076020526040600020546008602052604060002054918115156000146115fd576127109283810293818504148115171561043e576115d583608095612005565b915b600052600660205260406000205492604051938452602084015260408301526060820152f35b6080926000916115d7565b3461023257604036600319011261023257602061162e611626611ce8565b600435612035565b6040519015158152f35b3461023257600036600319011261023257602060405168056bc75e2d631000008152f35b3461023257602036600319011261023257600435611678611ec4565b610e1081101590816116c3575b501561168d57005b60405162461bcd60e51b815260206004820152600e60248201526d496e76616c69642077696e646f7760901b6044820152606490fd5b62093a809150111581611685565b346102325760203660031901126102325760043560005260036020526020604060002080549060018060a01b0360018201541660ff61171260028401611da1565b92600481015493600582015460068301546007840154600885015491600986015493611767600a88015496600c600b8a01549901549a6040519e8f9e8f908152015260408d6101a091829101528d0190611e47565b9960608c015260808b015260a08a015260c089015260e0880152610100870152610120860152818116151561014086015260081c1615156101608401526101808301520390f35b34610232576000366003190112610232576020604051620151808152f35b346102325760203660031901126102325767ffffffffffffffff600435818111610232576117fe903690600401611d14565b60005b81811061180a57005b61181f33611819838587612025565b35612035565b611832575b61182d90611ff6565b611801565b61183d818385612025565b35303b156102325760405190630962ef7960e01b825260048201526024600082828183305af1801561048157611875575b5050611824565b858211611889575060405261182d8561186e565b634e487b7160e01b60009081526041600452fd5b34610232576020366003190112610232576001600160a01b036118be611cfe565b1660005260086020526020604060002054604051908152f35b34610232576020366003190112610232576001600160a01b036118f8611cfe565b1660005260076020526020604060002054604051908152f35b346102325760208060031936011261023257600435906001916002835414611c2857600283556119446002548210611fb7565b80600052600382526040600020600b810160ff81541615611bee578260005260048452604060002033600052845260406000209085820191825415611bb95760028101805460ff8116611b8257889060ff1916179055336000526007865260406000206119b18154611ff6565b905560ff600091541660ff835460081c16151590151514600014611b0657505460081c60ff16918215611afb576007810154925b15611af15760080154905b54908181029080820483149015171561043e57611a1692611a1091612005565b90611f89565b60405163a9059cbb60e01b8152336004820152602481018290529092808260448160006001600160a01b037f0000000000000000000000000000000000000000000000000000000000000000165af1918215610481577f3300bdb359cfb956935bca32e9db727413eab1ca84341f2e36caea85bb79696892611ad4575b5033600052600681526040600020611aab8154611ff6565b905533600052600881526040600020611ac48154611ff6565b90555b6040519384523393a38055005b611aea90823d841161047a5761046b8183611d7f565b5085611a93565b60070154906119f0565b6008810154926119e5565b9492505050336000526006815260406000209081549182158015611b4f575b50507f3300bdb359cfb956935bca32e9db727413eab1ca84341f2e36caea85bb7969689150611ac7565b61043e577f3300bdb359cfb956935bca32e9db727413eab1ca84341f2e36caea85bb796968926000190190558580611b25565b60405162461bcd60e51b815260048101899052600f60248201526e105b1c9958591e4818db185a5b5959608a1b6044820152606490fd5b60405162461bcd60e51b815260048101879052600d60248201526c139bc81d9bdd1948199bdd5b99609a1b6044820152606490fd5b60405162461bcd60e51b8152600481018590526012602482015271149d5b5bdc881b9bdd081c995cdbdb1d995960721b6044820152606490fd5b60405162461bcd60e51b815260048101839052601f60248201527f5265656e7472616e637947756172643a207265656e7472616e742063616c6c006044820152606490fd5b3461023257604036600319011261023257611c86611ce8565b600435600052600460205260406000209060018060a01b031660005260205280611073604060002060ff815416906001810154600360ff6002840154169201549285909493926060926080830196151583526020830152151560408201520152565b602435906001600160a01b038216820361023257565b600435906001600160a01b038216820361023257565b9181601f840112156102325782359167ffffffffffffffff8311610232576020808501948460051b01011161023257565b90600182811c92168015611d75575b6020831014611d5f57565b634e487b7160e01b600052602260045260246000fd5b91607f1691611d54565b90601f8019910116810190811067ffffffffffffffff82111761085057604052565b9060405191826000825492611db584611d45565b908184526001948581169081600014611e245750600114611de1575b5050611ddf92500383611d7f565b565b9093915060005260209081600020936000915b818310611e0c575050611ddf93508201013880611dd1565b85548884018501529485019487945091830191611df4565b915050611ddf94506020925060ff191682840152151560051b8201013880611dd1565b919082519283825260005b848110611e73575050826000602080949584010152601f8019910116010190565b602081830181015184830182015201611e52565b60243590811515820361023257565b8054821015611eae5760005260206000200190600090565b634e487b7160e01b600052603260045260246000fd5b6000546001600160a01b03163303611ed857565b606460405162461bcd60e51b815260206004820152602060248201527f4f776e61626c653a2063616c6c6572206973206e6f7420746865206f776e65726044820152fd5b90816020910312610232575180151581036102325790565b15611f3b57565b60405162461bcd60e51b815260206004820152600f60248201526e151c985b9cd9995c8819985a5b1959608a1b6044820152606490fd5b818110611f7d575050565b60008155600101611f72565b9190820180921161043e57565b908060209392818452848401376000828201840152601f01601f1916010190565b15611fbe57565b60405162461bcd60e51b815260206004820152601060248201526f125b9d985b1a59081c9d5b5bdc88125160821b6044820152606490fd5b600019811461043e5760010190565b811561200f570490565b634e487b7160e01b600052601260045260246000fd5b9190811015611eae5760051b0190565b60025481101561209e576000526003602052604060002090600460205260406000209060018060a01b031660005260205260ff600b6040600020920154169081612090575b81612083575090565b60ff915060020154161590565b60018101541515915061207a565b5050600090565b67ffffffffffffffff81116108505760051b60200190565b906120c7826120a5565b6120d46040519182611d7f565b82815280926120e5601f19916120a5565b0190602036910137565b8051821015611eae5760209160051b01019056fea2646970667358221220f06058c23e95ade5c0505fd67fd892247d6d1171c36495b1e700714599b5678c64736f6c63430008130033","opcodes":"PUSH1 0xA0 CALLVALUE PUSH2 0x11B JUMPI PUSH1 0x1F PUSH2 0x2270 CODESIZE DUP2 SWAP1 SUB SWAP2 DUP3 ADD PUSH1 0x1F NOT AND DUP4 ADD SWAP2 PUSH1 0x1 PUSH1 0x1 PUSH1 0x40 SHL SUB DUP4 GT DUP5 DUP5 LT OR PUSH2 0x120 JUMPI DUP1 DUP5 SWAP3 PUSH1 0x20 SWAP5 PUSH1 0x40 MSTORE DUP4 CODECOPY DUP2 ADD SUB SLT PUSH2 0x11B JUMPI MLOAD PUSH1 0x1 PUSH1 0x1 PUSH1 0xA0 SHL SUB DUP1 DUP3 AND SWAP2 DUP3 SWAP1 SUB PUSH2 0x11B JUMPI PUSH1 0x0 SLOAD CALLER PUSH1 0x1 DUP1 PUSH1 0xA0 SHL SUB NOT DUP3 AND OR PUSH1 0x0 SSTORE PUSH1 0x40 MLOAD SWAP2 CALLER SWAP2 AND PUSH32 0x8BE0079C531659141344CD1FD0A4F28419497F9722A3DAAFE3B4186F6B6457E0 PUSH1 0x0 DUP1 LOG3 PUSH1 0x1 DUP1 SSTORE DUP2 ISZERO PUSH2 0xD9 JUMPI POP PUSH1 0x80 MSTORE PUSH1 0x40 MLOAD PUSH2 0x2139 SWAP1 DUP2 PUSH2 0x137 DUP3 CODECOPY PUSH1 0x80 MLOAD DUP2 DUP2 DUP2 PUSH2 0x3C8 ADD MSTORE DUP2 DUP2 PUSH2 0x6A9 ADD MSTORE DUP2 DUP2 PUSH2 0xA7C ADD MSTORE DUP2 DUP2 PUSH2 0x1325 ADD MSTORE DUP2 DUP2 PUSH2 0x1382 ADD MSTORE PUSH2 0x1A43 ADD MSTORE RETURN JUMPDEST PUSH3 0x461BCD PUSH1 0xE5 SHL DUP2 MSTORE PUSH1 0x20 PUSH1 0x4 DUP3 ADD MSTORE PUSH1 0x15 PUSH1 0x24 DUP3 ADD MSTORE PUSH32 0x496E76616C696420746F6B656E20616464726573730000000000000000000000 PUSH1 0x44 DUP3 ADD MSTORE PUSH1 0x64 SWAP1 REVERT JUMPDEST PUSH1 0x0 DUP1 REVERT JUMPDEST PUSH4 0x4E487B71 PUSH1 0xE0 SHL PUSH1 0x0 MSTORE PUSH1 0x41 PUSH1 0x4 MSTORE PUSH1 0x24 PUSH1 0x0 REVERT INVALID PUSH1 0x80 DUP1 PUSH1 0x40 MSTORE PUSH1 0x4 CALLDATASIZE LT ISZERO PUSH2 0x13 JUMPI PUSH1 0x0 DUP1 REVERT JUMPDEST PUSH1 0x0 CALLDATALOAD PUSH1 0xE0 SHR SWAP1 DUP2 PUSH4 0x3C7881A EQ PUSH2 0x1C6D JUMPI POP DUP1 PUSH4 0x962EF79 EQ PUSH2 0x1911 JUMPI DUP1 PUSH4 0xE776AA5 EQ PUSH2 0x18D7 JUMPI DUP1 PUSH4 0x1A1F194B EQ PUSH2 0x189D JUMPI DUP1 PUSH4 0x29183872 EQ PUSH2 0x17CC JUMPI DUP1 PUSH4 0x355A34C8 EQ PUSH2 0x17AE JUMPI DUP1 PUSH4 0x3D117257 EQ PUSH2 0x16D1 JUMPI DUP1 PUSH4 0x3E8554A2 EQ PUSH2 0x165C JUMPI DUP1 PUSH4 0x415374F9 EQ PUSH2 0x1638 JUMPI DUP1 PUSH4 0x485DE6FF EQ PUSH2 0x1608 JUMPI DUP1 PUSH4 0x4E43603A EQ PUSH2 0x156E JUMPI DUP1 PUSH4 0x5A4507A8 EQ PUSH2 0x1550 JUMPI DUP1 PUSH4 0x715018A6 EQ PUSH2 0x14F7 JUMPI DUP1 PUSH4 0x7D48536D EQ PUSH2 0x14D4 JUMPI DUP1 PUSH4 0x8456CB59 EQ PUSH2 0x14BB JUMPI DUP1 PUSH4 0x8DA5CB5B EQ PUSH2 0x1492 JUMPI DUP1 PUSH4 0x95BEACD5 EQ PUSH2 0x146F JUMPI DUP1 PUSH4 0x95BEEAE8 EQ PUSH2 0x144C JUMPI DUP1 PUSH4 0x95CCEA67 EQ PUSH2 0x1354 JUMPI DUP1 PUSH4 0x993C44F0 EQ PUSH2 0x130F JUMPI DUP1 PUSH4 0xB108395A EQ PUSH2 0x120B JUMPI DUP1 PUSH4 0xCFD52A37 EQ PUSH2 0x1077 JUMPI DUP1 PUSH4 0xD23254B4 EQ PUSH2 0xFF3 JUMPI DUP1 PUSH4 0xD352CAD8 EQ PUSH2 0x9B6 JUMPI DUP1 PUSH4 0xD46A5D7E EQ PUSH2 0x5C5 JUMPI DUP1 PUSH4 0xE3649820 EQ PUSH2 0x500 JUMPI DUP1 PUSH4 0xE4F34FAF EQ PUSH2 0x2C3 JUMPI DUP1 PUSH4 0xE503BB05 EQ PUSH2 0x289 JUMPI DUP1 PUSH4 0xF198F593 EQ PUSH2 0x237 JUMPI PUSH4 0xF2FDE38B EQ PUSH2 0x169 JUMPI PUSH1 0x0 DUP1 REVERT JUMPDEST CALLVALUE PUSH2 0x232 JUMPI PUSH1 0x20 CALLDATASIZE PUSH1 0x3 NOT ADD SLT PUSH2 0x232 JUMPI PUSH2 0x182 PUSH2 0x1CFE JUMP JUMPDEST PUSH2 0x18A PUSH2 0x1EC4 JUMP JUMPDEST PUSH1 0x1 PUSH1 0x1 PUSH1 0xA0 SHL SUB SWAP1 DUP2 AND SWAP1 DUP2 ISZERO PUSH2 0x1DE JUMPI PUSH1 0x0 SLOAD DUP3 PUSH12 0xFFFFFFFFFFFFFFFFFFFFFFFF PUSH1 0xA0 SHL DUP3 AND OR PUSH1 0x0 SSTORE AND PUSH32 0x8BE0079C531659141344CD1FD0A4F28419497F9722A3DAAFE3B4186F6B6457E0 PUSH1 0x0 DUP1 LOG3 STOP JUMPDEST PUSH1 0x40 MLOAD PUSH3 0x461BCD PUSH1 0xE5 SHL DUP2 MSTORE PUSH1 0x20 PUSH1 0x4 DUP3 ADD MSTORE PUSH1 0x26 PUSH1 0x24 DUP3 ADD MSTORE PUSH32 0x4F776E61626C653A206E6577206F776E657220697320746865207A65726F2061 PUSH1 0x44 DUP3 ADD MSTORE PUSH6 0x646472657373 PUSH1 0xD0 SHL PUSH1 0x64 DUP3 ADD MSTORE PUSH1 0x84 SWAP1 REVERT JUMPDEST PUSH1 0x0 DUP1 REVERT JUMPDEST CALLVALUE PUSH2 0x232 JUMPI PUSH1 0x40 CALLDATASIZE PUSH1 0x3 NOT ADD SLT PUSH2 0x232 JUMPI PUSH1 0x24 CALLDATALOAD PUSH1 0x4 CALLDATALOAD PUSH1 0x0 MSTORE PUSH1 0x5 PUSH1 0x20 MSTORE PUSH1 0x40 PUSH1 0x0 KECCAK256 DUP1 SLOAD DUP3 LT ISZERO PUSH2 0x232 JUMPI PUSH1 0x20 SWAP2 PUSH2 0x270 SWAP2 PUSH2 0x1E96 JUMP JUMPDEST SWAP1 SLOAD PUSH1 0x40 MLOAD PUSH1 0x3 SWAP3 SWAP1 SWAP3 SHL SHR PUSH1 0x1 PUSH1 0x1 PUSH1 0xA0 SHL SUB AND DUP2 MSTORE RETURN JUMPDEST CALLVALUE PUSH2 0x232 JUMPI PUSH1 0x20 CALLDATASIZE PUSH1 0x3 NOT ADD SLT PUSH2 0x232 JUMPI PUSH1 0x1 PUSH1 0x1 PUSH1 0xA0 SHL SUB PUSH2 0x2AA PUSH2 0x1CFE JUMP JUMPDEST AND PUSH1 0x0 MSTORE PUSH1 0x6 PUSH1 0x20 MSTORE PUSH1 0x20 PUSH1 0x40 PUSH1 0x0 KECCAK256 SLOAD PUSH1 0x40 MLOAD SWAP1 DUP2 MSTORE RETURN JUMPDEST CALLVALUE PUSH2 0x232 JUMPI PUSH1 0x40 CALLDATASIZE PUSH1 0x3 NOT ADD SLT PUSH2 0x232 JUMPI PUSH1 0x4 CALLDATALOAD PUSH2 0x2DF PUSH2 0x1E87 JUMP JUMPDEST PUSH2 0x2E7 PUSH2 0x1EC4 JUMP JUMPDEST PUSH2 0x2F4 PUSH1 0x2 SLOAD DUP4 LT PUSH2 0x1FB7 JUMP JUMPDEST DUP2 PUSH1 0x0 MSTORE PUSH1 0x20 PUSH1 0x3 DUP2 MSTORE PUSH1 0x40 PUSH1 0x0 KECCAK256 SWAP1 PUSH1 0xB DUP3 ADD DUP1 SLOAD PUSH1 0xFF DUP2 AND PUSH2 0x4C8 JUMPI PUSH1 0xA DUP5 ADD SLOAD TIMESTAMP LT PUSH2 0x48D JUMPI PUSH1 0x1 SWAP1 PUSH2 0xFF00 DUP7 ISZERO ISZERO PUSH1 0x8 SHL AND SWAP1 PUSH2 0xFFFF NOT AND OR OR SWAP1 SSTORE PUSH2 0x347 PUSH1 0x7 DUP4 ADD SLOAD PUSH1 0x8 DUP5 ADD SLOAD SWAP1 PUSH2 0x1F89 JUMP JUMPDEST SWAP2 DUP4 DUP4 PUSH1 0xC DUP4 ADD SSTORE PUSH2 0x38C JUMPI JUMPDEST POP POP PUSH1 0x40 DUP1 MLOAD SWAP3 ISZERO ISZERO DUP4 MSTORE PUSH1 0x20 DUP4 ADD SWAP2 SWAP1 SWAP2 MSTORE PUSH32 0x43139F0FA3946B8523E56B935BB1E8CD019B87110AA7E8EBB876A752CA46E103 SWAP2 LOG2 STOP JUMPDEST PUSH1 0x1 ADD DUP1 SLOAD PUSH1 0x40 MLOAD PUSH4 0xA9059CBB PUSH1 0xE0 SHL DUP2 MSTORE PUSH1 0x1 PUSH1 0x1 PUSH1 0xA0 SHL SUB SWAP2 DUP3 AND PUSH1 0x4 DUP3 ADD MSTORE PUSH9 0x56BC75E2D63100000 PUSH1 0x24 DUP3 ADD MSTORE SWAP3 SWAP2 DUP3 DUP5 PUSH1 0x44 DUP2 PUSH1 0x0 PUSH32 0x0 DUP8 AND GAS CALL SWAP4 DUP5 ISZERO PUSH2 0x481 JUMPI PUSH1 0x6 SWAP5 PUSH2 0x454 JUMPI JUMPDEST POP SLOAD AND PUSH1 0x0 MSTORE MSTORE PUSH1 0x40 PUSH1 0x0 KECCAK256 SWAP2 DUP3 SLOAD PUSH1 0x2 DUP2 ADD DUP1 SWAP2 GT PUSH2 0x43E JUMPI PUSH32 0x43139F0FA3946B8523E56B935BB1E8CD019B87110AA7E8EBB876A752CA46E103 SWAP4 SSTORE SWAP2 DUP5 PUSH2 0x354 JUMP JUMPDEST PUSH4 0x4E487B71 PUSH1 0xE0 SHL PUSH1 0x0 MSTORE PUSH1 0x11 PUSH1 0x4 MSTORE PUSH1 0x24 PUSH1 0x0 REVERT JUMPDEST PUSH2 0x473 SWAP1 DUP5 RETURNDATASIZE DUP7 GT PUSH2 0x47A JUMPI JUMPDEST PUSH2 0x46B DUP2 DUP4 PUSH2 0x1D7F JUMP JUMPDEST DUP2 ADD SWAP1 PUSH2 0x1F1C JUMP JUMPDEST POP DUP8 PUSH2 0x3FA JUMP JUMPDEST POP RETURNDATASIZE PUSH2 0x461 JUMP JUMPDEST PUSH1 0x40 MLOAD RETURNDATASIZE PUSH1 0x0 DUP3 RETURNDATACOPY RETURNDATASIZE SWAP1 REVERT JUMPDEST PUSH1 0x40 MLOAD PUSH3 0x461BCD PUSH1 0xE5 SHL DUP2 MSTORE PUSH1 0x4 DUP2 ADD DUP5 SWAP1 MSTORE PUSH1 0x13 PUSH1 0x24 DUP3 ADD MSTORE PUSH19 0x566F74696E67207374696C6C20616374697665 PUSH1 0x68 SHL PUSH1 0x44 DUP3 ADD MSTORE PUSH1 0x64 SWAP1 REVERT JUMPDEST PUSH1 0x40 MLOAD PUSH3 0x461BCD PUSH1 0xE5 SHL DUP2 MSTORE PUSH1 0x4 DUP2 ADD DUP5 SWAP1 MSTORE PUSH1 0x10 PUSH1 0x24 DUP3 ADD MSTORE PUSH16 0x105B1C9958591E481C995CDBDB1D9959 PUSH1 0x82 SHL PUSH1 0x44 DUP3 ADD MSTORE PUSH1 0x64 SWAP1 REVERT JUMPDEST CALLVALUE PUSH2 0x232 JUMPI PUSH1 0x20 DUP1 PUSH1 0x3 NOT CALLDATASIZE ADD SLT PUSH2 0x232 JUMPI PUSH1 0x4 CALLDATALOAD PUSH2 0x522 PUSH1 0x2 SLOAD DUP3 LT PUSH2 0x1FB7 JUMP JUMPDEST PUSH1 0x0 MSTORE PUSH1 0x5 DUP2 MSTORE PUSH1 0x40 PUSH1 0x0 KECCAK256 PUSH1 0x40 MLOAD SWAP1 DUP2 DUP4 DUP3 SLOAD SWAP2 DUP3 DUP2 MSTORE ADD SWAP1 DUP2 SWAP3 PUSH1 0x0 MSTORE DUP5 PUSH1 0x0 KECCAK256 SWAP1 PUSH1 0x0 JUMPDEST DUP7 DUP3 DUP3 LT PUSH2 0x5A8 JUMPI DUP7 DUP7 PUSH2 0x55F DUP3 DUP9 SUB DUP4 PUSH2 0x1D7F JUMP JUMPDEST PUSH1 0x40 MLOAD SWAP3 DUP4 SWAP3 DUP2 DUP5 ADD SWAP1 DUP3 DUP6 MSTORE MLOAD DUP1 SWAP2 MSTORE PUSH1 0x40 DUP5 ADD SWAP3 SWAP2 PUSH1 0x0 JUMPDEST DUP3 DUP2 LT PUSH2 0x588 JUMPI POP POP POP POP SUB SWAP1 RETURN JUMPDEST DUP4 MLOAD PUSH1 0x1 PUSH1 0x1 PUSH1 0xA0 SHL SUB AND DUP6 MSTORE DUP7 SWAP6 POP SWAP4 DUP2 ADD SWAP4 SWAP3 DUP2 ADD SWAP3 PUSH1 0x1 ADD PUSH2 0x579 JUMP JUMPDEST DUP4 SLOAD PUSH1 0x1 PUSH1 0x1 PUSH1 0xA0 SHL SUB AND DUP6 MSTORE SWAP1 SWAP4 ADD SWAP3 PUSH1 0x1 SWAP3 DUP4 ADD SWAP3 ADD PUSH2 0x549 JUMP JUMPDEST CALLVALUE PUSH2 0x232 JUMPI PUSH1 0x60 CALLDATASIZE PUSH1 0x3 NOT ADD SLT PUSH2 0x232 JUMPI PUSH1 0x4 CALLDATALOAD PUSH2 0x5E1 PUSH2 0x1E87 JUMP JUMPDEST SWAP1 PUSH1 0x44 DUP1 CALLDATALOAD SWAP1 PUSH2 0x5F4 PUSH1 0x2 SLOAD DUP5 LT PUSH2 0x1FB7 JUMP JUMPDEST DUP3 PUSH1 0x0 MSTORE PUSH1 0x3 SWAP2 PUSH1 0x20 SWAP3 DUP1 DUP5 MSTORE PUSH1 0xA PUSH1 0x40 PUSH1 0x0 KECCAK256 ADD SLOAD TIMESTAMP LT ISZERO PUSH2 0x97C JUMPI DUP5 PUSH1 0x0 MSTORE DUP1 DUP5 MSTORE PUSH1 0xFF PUSH1 0xB PUSH1 0x40 PUSH1 0x0 KECCAK256 ADD SLOAD AND PUSH2 0x93F JUMPI PUSH8 0xDE0B6B3A7640000 DUP3 LT ISZERO DUP1 PUSH2 0x92D JUMPI JUMPDEST ISZERO PUSH2 0x8F2 JUMPI DUP5 PUSH1 0x0 MSTORE PUSH1 0x4 DUP5 MSTORE PUSH1 0x40 PUSH1 0x0 KECCAK256 CALLER PUSH1 0x0 MSTORE DUP5 MSTORE PUSH1 0x1 PUSH1 0x40 PUSH1 0x0 KECCAK256 ADD SLOAD PUSH2 0x8BE JUMPI PUSH1 0x0 DUP6 DUP2 MSTORE DUP2 DUP6 MSTORE PUSH1 0x40 SWAP1 KECCAK256 PUSH1 0x1 ADD SLOAD PUSH1 0x1 PUSH1 0x1 PUSH1 0xA0 SHL SUB SWAP4 SWAP1 DUP5 AND CALLER EQ PUSH2 0x883 JUMPI PUSH1 0x40 MLOAD PUSH4 0x23B872DD PUSH1 0xE0 SHL DUP2 MSTORE CALLER PUSH1 0x4 DUP3 ADD MSTORE ADDRESS PUSH1 0x24 DUP3 ADD MSTORE SWAP1 DUP2 ADD DUP4 SWAP1 MSTORE DUP5 DUP2 PUSH1 0x64 DUP2 PUSH1 0x0 PUSH32 0x0 DUP10 AND GAS CALL DUP1 ISZERO PUSH2 0x481 JUMPI PUSH2 0x6E4 SWAP2 PUSH1 0x0 SWAP2 PUSH2 0x866 JUMPI JUMPDEST POP PUSH2 0x1F34 JUMP JUMPDEST PUSH1 0x40 MLOAD PUSH1 0x80 DUP2 ADD DUP2 DUP2 LT PUSH8 0xFFFFFFFFFFFFFFFF DUP3 GT OR PUSH2 0x850 JUMPI PUSH1 0x40 MSTORE DUP7 ISZERO ISZERO DUP2 MSTORE DUP2 DUP6 DUP3 ADD DUP5 DUP2 MSTORE PUSH2 0x76F PUSH1 0x40 DUP5 ADD PUSH1 0x0 DUP2 MSTORE PUSH1 0x60 DUP6 ADD SWAP3 TIMESTAMP DUP5 MSTORE DUP11 PUSH1 0x0 MSTORE PUSH1 0x4 DUP11 MSTORE PUSH1 0x40 PUSH1 0x0 KECCAK256 CALLER PUSH1 0x0 MSTORE DUP11 MSTORE PUSH2 0x751 PUSH1 0x40 PUSH1 0x0 KECCAK256 SWAP7 MLOAD ISZERO ISZERO DUP8 SWAP1 PUSH1 0xFF DUP1 NOT DUP4 SLOAD AND SWAP2 ISZERO ISZERO AND OR SWAP1 SSTORE JUMP JUMPDEST MLOAD PUSH1 0x1 DUP7 ADD SSTORE MLOAD ISZERO ISZERO PUSH1 0x2 DUP6 ADD SWAP1 PUSH1 0xFF DUP1 NOT DUP4 SLOAD AND SWAP2 ISZERO ISZERO AND OR SWAP1 SSTORE JUMP JUMPDEST MLOAD SWAP2 ADD SSTORE DUP5 PUSH1 0x0 MSTORE PUSH1 0x5 DUP5 MSTORE PUSH1 0x40 PUSH1 0x0 KECCAK256 SWAP4 DUP5 SLOAD SWAP4 PUSH1 0x1 PUSH1 0x40 SHL DUP6 LT ISZERO PUSH2 0x850 JUMPI PUSH2 0x7C4 DUP6 PUSH32 0xCBDF6214089CBA887ECBF35A0B6A734589959C9763342C756BB2A80CA2BC9F6E SWAP8 PUSH1 0x1 PUSH2 0x825 SWAP9 ADD DUP2 SSTORE PUSH2 0x1E96 JUMP JUMPDEST DUP2 SWAP3 SWAP2 SLOAD SWAP1 DUP6 SHL SWAP2 CALLER DUP4 SHL SWAP3 SHL NOT AND OR SWAP1 SSTORE DUP6 PUSH1 0x0 MSTORE MSTORE PUSH1 0x40 PUSH1 0x0 KECCAK256 DUP6 PUSH1 0x0 EQ PUSH2 0x82A JUMPI DUP1 PUSH1 0x5 PUSH1 0x7 SWAP3 ADD PUSH2 0x7F9 DUP2 SLOAD PUSH2 0x1FF6 JUMP JUMPDEST SWAP1 SSTORE ADD PUSH2 0x807 DUP3 DUP3 SLOAD PUSH2 0x1F89 JUMP JUMPDEST SWAP1 SSTORE JUMPDEST PUSH1 0x40 DUP1 MLOAD SWAP6 ISZERO ISZERO DUP7 MSTORE PUSH1 0x20 DUP7 ADD SWAP2 SWAP1 SWAP2 MSTORE CALLER SWAP5 SWAP2 DUP3 SWAP2 DUP3 ADD SWAP1 JUMP JUMPDEST SUB SWAP1 LOG3 STOP JUMPDEST DUP1 PUSH1 0x6 PUSH1 0x8 SWAP3 ADD PUSH2 0x83B DUP2 SLOAD PUSH2 0x1FF6 JUMP JUMPDEST SWAP1 SSTORE ADD PUSH2 0x849 DUP3 DUP3 SLOAD PUSH2 0x1F89 JUMP JUMPDEST SWAP1 SSTORE PUSH2 0x80A JUMP JUMPDEST PUSH4 0x4E487B71 PUSH1 0xE0 SHL PUSH1 0x0 MSTORE PUSH1 0x41 PUSH1 0x4 MSTORE PUSH1 0x24 PUSH1 0x0 REVERT JUMPDEST PUSH2 0x87D SWAP2 POP DUP7 RETURNDATASIZE DUP9 GT PUSH2 0x47A JUMPI PUSH2 0x46B DUP2 DUP4 PUSH2 0x1D7F JUMP JUMPDEST DUP9 PUSH2 0x6DE JUMP JUMPDEST DUP5 PUSH21 0x5375626D69747465722063616E6E6F7420766F7465 PUSH1 0x58 SHL PUSH1 0x64 SWAP3 PUSH1 0x40 MLOAD SWAP3 PUSH3 0x461BCD PUSH1 0xE5 SHL DUP5 MSTORE PUSH1 0x4 DUP5 ADD MSTORE PUSH1 0x15 PUSH1 0x24 DUP5 ADD MSTORE DUP3 ADD MSTORE REVERT JUMPDEST PUSH1 0x40 MLOAD PUSH3 0x461BCD PUSH1 0xE5 SHL DUP2 MSTORE PUSH1 0x4 DUP2 ADD DUP6 SWAP1 MSTORE PUSH1 0xD PUSH1 0x24 DUP3 ADD MSTORE PUSH13 0x105B1C9958591E481D9BDD1959 PUSH1 0x9A SHL DUP2 DUP6 ADD MSTORE PUSH1 0x64 SWAP1 REVERT JUMPDEST PUSH1 0x40 MLOAD PUSH3 0x461BCD PUSH1 0xE5 SHL DUP2 MSTORE PUSH1 0x4 DUP2 ADD DUP6 SWAP1 MSTORE PUSH1 0x14 PUSH1 0x24 DUP3 ADD MSTORE PUSH20 0x125B9D985B1A59081CDD185AD948185B5BDD5B9D PUSH1 0x62 SHL DUP2 DUP6 ADD MSTORE PUSH1 0x64 SWAP1 REVERT JUMPDEST POP PUSH8 0x4563918244F40000 DUP3 GT ISZERO PUSH2 0x63A JUMP JUMPDEST PUSH1 0x40 MLOAD PUSH3 0x461BCD PUSH1 0xE5 SHL DUP2 MSTORE PUSH1 0x4 DUP2 ADD DUP6 SWAP1 MSTORE PUSH1 0x16 PUSH1 0x24 DUP3 ADD MSTORE PUSH22 0x149D5B5BDC88185B1C9958591E481C995CDBDB1D9959 PUSH1 0x52 SHL DUP2 DUP6 ADD MSTORE PUSH1 0x64 SWAP1 REVERT JUMPDEST PUSH1 0x40 MLOAD PUSH3 0x461BCD PUSH1 0xE5 SHL DUP2 MSTORE PUSH1 0x4 DUP2 ADD DUP6 SWAP1 MSTORE PUSH1 0x13 PUSH1 0x24 DUP3 ADD MSTORE PUSH19 0x159BDD1A5B99C81C195C9A5BD908195B991959 PUSH1 0x6A SHL DUP2 DUP6 ADD MSTORE PUSH1 0x64 SWAP1 REVERT JUMPDEST CALLVALUE PUSH2 0x232 JUMPI PUSH1 0x40 CALLDATASIZE PUSH1 0x3 NOT ADD SLT PUSH2 0x232 JUMPI PUSH8 0xFFFFFFFFFFFFFFFF PUSH1 0x4 CALLDATALOAD GT PUSH2 0x232 JUMPI CALLDATASIZE PUSH1 0x23 PUSH1 0x4 CALLDATALOAD ADD SLT ISZERO PUSH2 0x232 JUMPI PUSH8 0xFFFFFFFFFFFFFFFF PUSH1 0x4 CALLDATALOAD PUSH1 0x4 ADD CALLDATALOAD GT PUSH2 0x232 JUMPI CALLDATASIZE PUSH1 0x24 PUSH1 0x4 CALLDATALOAD PUSH1 0x4 ADD CALLDATALOAD PUSH1 0x4 CALLDATALOAD ADD ADD GT PUSH2 0x232 JUMPI PUSH1 0x24 CALLDATALOAD PUSH8 0xFFFFFFFFFFFFFFFF DUP2 GT PUSH2 0x232 JUMPI PUSH2 0xA2E SWAP1 CALLDATASIZE SWAP1 PUSH1 0x4 ADD PUSH2 0x1D14 JUMP JUMPDEST SWAP1 PUSH1 0x4 CALLDATALOAD PUSH1 0x4 ADD CALLDATALOAD ISZERO ISZERO DUP1 PUSH2 0xFE1 JUMPI JUMPDEST ISZERO PUSH2 0xFA3 JUMPI PUSH1 0x5 DUP3 GT PUSH2 0xF6E JUMPI PUSH1 0x40 MLOAD PUSH4 0x23B872DD PUSH1 0xE0 SHL DUP2 MSTORE CALLER PUSH1 0x4 DUP3 ADD MSTORE ADDRESS PUSH1 0x24 DUP3 ADD MSTORE PUSH8 0x8AC7230489E80000 PUSH1 0x44 DUP3 ADD MSTORE PUSH1 0x20 DUP2 PUSH1 0x64 DUP2 PUSH1 0x0 PUSH32 0x0 PUSH1 0x1 PUSH1 0x1 PUSH1 0xA0 SHL SUB AND GAS CALL DUP1 ISZERO PUSH2 0x481 JUMPI PUSH2 0xABD SWAP2 PUSH1 0x0 SWAP2 PUSH2 0xF4F JUMPI POP PUSH2 0x1F34 JUMP JUMPDEST PUSH1 0x2 SLOAD SWAP1 PUSH1 0x1 DUP3 ADD PUSH1 0x2 SSTORE DUP2 PUSH1 0x0 MSTORE PUSH1 0x3 PUSH1 0x20 MSTORE PUSH1 0x40 PUSH1 0x0 KECCAK256 DUP3 DUP2 SSTORE PUSH1 0x1 DUP2 ADD CALLER PUSH12 0xFFFFFFFFFFFFFFFFFFFFFFFF PUSH1 0xA0 SHL DUP3 SLOAD AND OR SWAP1 SSTORE PUSH2 0xB01 PUSH1 0x2 DUP3 ADD SLOAD PUSH2 0x1D45 JUMP JUMPDEST PUSH1 0x1F DUP2 GT PUSH2 0xF0E JUMPI JUMPDEST POP PUSH1 0x0 PUSH1 0x1F PUSH1 0x4 CALLDATALOAD PUSH1 0x4 ADD CALLDATALOAD GT PUSH1 0x1 EQ PUSH2 0xE82 JUMPI PUSH1 0x0 SWAP1 PUSH1 0x4 CALLDATALOAD PUSH1 0x4 ADD CALLDATALOAD PUSH2 0xE72 JUMPI JUMPDEST POP PUSH1 0x4 CALLDATALOAD PUSH1 0x4 ADD CALLDATALOAD PUSH1 0x1 SHL SWAP1 PUSH1 0x0 NOT PUSH1 0x4 CALLDATALOAD PUSH1 0x4 ADD CALLDATALOAD PUSH1 0x3 SHL SHR NOT AND OR PUSH1 0x2 DUP3 ADD SSTORE JUMPDEST PUSH1 0x1 PUSH1 0x40 SHL DUP5 GT PUSH2 0x850 JUMPI PUSH1 0x3 DUP2 ADD SLOAD DUP5 PUSH1 0x3 DUP4 ADD SSTORE DUP1 DUP6 LT PUSH2 0xDFA JUMPI JUMPDEST POP DUP2 PUSH1 0x3 DUP3 ADD PUSH1 0x0 MSTORE PUSH1 0x20 PUSH1 0x0 KECCAK256 PUSH1 0x0 SWAP2 JUMPDEST DUP7 DUP4 LT PUSH2 0xC8E JUMPI POP POP POP PUSH8 0x8AC7230489E80000 PUSH1 0x4 DUP3 ADD SSTORE TIMESTAMP PUSH1 0x9 DUP3 ADD SSTORE PUSH3 0x15180 TIMESTAMP ADD SWAP1 DUP2 TIMESTAMP GT PUSH2 0x43E JUMPI PUSH1 0xA SWAP1 SWAP5 SWAP3 SWAP5 ADD SSTORE PUSH1 0x40 MLOAD SWAP3 PUSH1 0x40 DUP5 MSTORE PUSH2 0xBD5 PUSH1 0x40 DUP6 ADD PUSH1 0x4 CALLDATALOAD PUSH1 0x4 ADD CALLDATALOAD PUSH1 0x24 PUSH1 0x4 CALLDATALOAD ADD PUSH2 0x1F96 JUMP JUMPDEST SWAP2 DUP5 DUP4 SUB PUSH1 0x20 DUP7 ADD MSTORE DUP1 DUP4 MSTORE PUSH1 0x20 DUP4 ADD SWAP1 PUSH1 0x20 DUP2 PUSH1 0x5 SHL DUP6 ADD ADD SWAP4 DUP4 PUSH1 0x0 SWAP2 JUMPDEST DUP4 DUP4 LT PUSH2 0xC2F JUMPI PUSH1 0x20 DUP9 CALLER DUP2 PUSH32 0x134C7D1F1615B0AC710E6435F1022E5F8E601E9707D11B55CAC26F7DAF45BE03 DUP14 DUP13 SUB DUP15 LOG3 PUSH1 0x40 MLOAD SWAP1 DUP2 MSTORE RETURN JUMPDEST SWAP1 SWAP2 SWAP3 SWAP4 SWAP5 SWAP6 PUSH1 0x1F NOT DUP3 DUP3 SUB ADD DUP7 MSTORE DUP7 CALLDATALOAD PUSH1 0x1E NOT DUP5 CALLDATASIZE SUB ADD DUP2 SLT ISZERO PUSH2 0x232 JUMPI DUP4 ADD SWAP1 PUSH1 0x20 DUP3 CALLDATALOAD SWAP3 ADD SWAP2 PUSH8 0xFFFFFFFFFFFFFFFF DUP2 GT PUSH2 0x232 JUMPI DUP1 CALLDATASIZE SUB DUP4 SGT PUSH2 0x232 JUMPI PUSH2 0xC80 PUSH1 0x20 SWAP3 DUP4 SWAP3 PUSH1 0x1 SWAP6 PUSH2 0x1F96 JUMP JUMPDEST SWAP9 ADD SWAP7 ADD SWAP5 SWAP4 ADD SWAP2 SWAP1 PUSH2 0xBF5 JUMP JUMPDEST PUSH1 0x1E NOT DUP6 CALLDATASIZE SUB ADD DUP2 CALLDATALOAD SLT ISZERO PUSH2 0x232 JUMPI PUSH8 0xFFFFFFFFFFFFFFFF DUP2 CALLDATALOAD DUP7 ADD CALLDATALOAD GT PUSH2 0x232 JUMPI DUP1 CALLDATALOAD DUP6 ADD DUP1 CALLDATALOAD CALLDATASIZE SUB PUSH1 0x20 SWAP1 SWAP2 ADD SGT PUSH2 0x232 JUMPI PUSH2 0xCCC DUP3 SLOAD PUSH2 0x1D45 JUMP JUMPDEST PUSH1 0x1F DUP2 GT PUSH2 0xDB9 JUMPI JUMPDEST POP PUSH1 0x0 PUSH1 0x1F DUP3 CALLDATALOAD DUP8 ADD CALLDATALOAD GT PUSH1 0x1 EQ PUSH2 0xD32 JUMPI PUSH1 0x20 PUSH1 0x1 SWAP3 DUP4 SWAP3 PUSH1 0x0 SWAP1 DUP3 CALLDATALOAD DUP11 ADD CALLDATALOAD PUSH2 0xD22 JUMPI JUMPDEST POP DUP2 CALLDATALOAD DUP10 ADD CALLDATALOAD DUP5 SHL SWAP1 PUSH1 0x0 NOT DUP4 CALLDATALOAD DUP12 ADD CALLDATALOAD PUSH1 0x3 SHL SHR NOT AND OR DUP6 SSTORE JUMPDEST ADD SWAP3 ADD SWAP3 ADD SWAP2 SWAP1 PUSH2 0xB80 JUMP JUMPDEST DUP4 SWAP2 POP DUP3 CALLDATALOAD DUP11 ADD ADD ADD CALLDATALOAD DUP12 PUSH2 0xCFB JUMP JUMPDEST DUP3 PUSH1 0x0 MSTORE PUSH1 0x20 PUSH1 0x0 KECCAK256 SWAP1 PUSH1 0x0 JUMPDEST DUP4 CALLDATALOAD DUP9 ADD CALLDATALOAD PUSH1 0x1F NOT AND DUP2 LT PUSH2 0xD9C JUMPI POP PUSH1 0x1 SWAP3 DUP4 SWAP3 PUSH1 0x20 SWAP3 DUP3 CALLDATALOAD DUP11 ADD CALLDATALOAD PUSH1 0x1F NOT DUP2 AND LT PUSH2 0xD79 JUMPI JUMPDEST POP POP DUP3 DUP2 CALLDATALOAD DUP10 ADD CALLDATALOAD DUP2 SHL ADD DUP6 SSTORE PUSH2 0xD16 JUMP JUMPDEST DUP4 PUSH1 0x0 NOT PUSH1 0xF8 DUP6 CALLDATALOAD DUP14 ADD CALLDATALOAD PUSH1 0x3 SHL AND SHR NOT SWAP2 DUP5 CALLDATALOAD DUP13 ADD ADD ADD CALLDATALOAD AND SWAP1 SSTORE DUP11 DUP1 PUSH2 0xD67 JUMP JUMPDEST SWAP1 SWAP2 PUSH1 0x20 PUSH1 0x1 DUP2 SWAP3 DUP3 DUP7 DUP9 CALLDATALOAD DUP14 ADD ADD ADD CALLDATALOAD DUP2 SSTORE ADD SWAP4 ADD SWAP2 ADD PUSH2 0xD3F JUMP JUMPDEST PUSH1 0x0 DUP4 DUP2 MSTORE PUSH1 0x20 SWAP1 DUP2 SWAP1 KECCAK256 PUSH2 0xDEA SWAP3 DUP5 CALLDATALOAD DUP10 ADD CALLDATALOAD PUSH1 0x1F DUP2 ADD PUSH1 0x5 SHR DUP4 ADD SWAP4 GT PUSH2 0xDF0 JUMPI JUMPDEST PUSH1 0x1F ADD PUSH1 0x5 SHR ADD SWAP1 PUSH2 0x1F72 JUMP JUMPDEST DUP8 PUSH2 0xCD5 JUMP JUMPDEST SWAP1 SWAP2 POP DUP2 SWAP1 PUSH2 0xDDD JUMP JUMPDEST PUSH1 0x3 DUP3 ADD PUSH1 0x0 MSTORE PUSH1 0x20 PUSH1 0x0 KECCAK256 SWAP1 DUP6 DUP3 ADD JUMPDEST DUP2 DUP4 ADD DUP2 LT PUSH2 0xE1B JUMPI POP POP PUSH2 0xB6E JUMP JUMPDEST DUP1 PUSH2 0xE28 PUSH1 0x1 SWAP3 SLOAD PUSH2 0x1D45 JUMP JUMPDEST DUP1 PUSH2 0xE35 JUMPI JUMPDEST POP ADD PUSH2 0xE0B JUMP JUMPDEST PUSH1 0x1F DUP2 GT DUP4 EQ PUSH2 0xE4B JUMPI POP PUSH1 0x0 DUP2 SSTORE JUMPDEST DUP9 PUSH2 0xE2E JUMP JUMPDEST PUSH1 0x0 SWAP1 DUP3 DUP3 MSTORE PUSH2 0xE69 PUSH1 0x1F PUSH1 0x20 DUP5 KECCAK256 SWAP3 ADD PUSH1 0x5 SHR DUP3 ADD DUP6 DUP4 ADD PUSH2 0x1F72 JUMP JUMPDEST DUP2 DUP4 SSTORE SSTORE PUSH2 0xE45 JUMP JUMPDEST PUSH1 0x24 SWAP2 POP PUSH1 0x4 CALLDATALOAD ADD ADD CALLDATALOAD DUP6 PUSH2 0xB2D JUMP JUMPDEST PUSH1 0x2 DUP3 ADD PUSH1 0x0 MSTORE PUSH1 0x20 PUSH1 0x0 KECCAK256 SWAP1 PUSH1 0x0 JUMPDEST PUSH1 0x4 DUP1 CALLDATALOAD ADD CALLDATALOAD PUSH1 0x1F NOT AND DUP2 LT PUSH2 0xEF1 JUMPI POP PUSH1 0x4 DUP1 CALLDATALOAD ADD CALLDATALOAD PUSH1 0x1F NOT DUP2 AND LT PUSH2 0xECC JUMPI JUMPDEST POP POP PUSH1 0x1 PUSH1 0x4 CALLDATALOAD PUSH1 0x4 ADD CALLDATALOAD DUP2 SHL ADD PUSH1 0x2 DUP3 ADD SSTORE PUSH2 0xB50 JUMP JUMPDEST PUSH1 0x24 PUSH1 0x0 NOT PUSH1 0xF8 PUSH1 0x4 CALLDATALOAD PUSH1 0x4 ADD CALLDATALOAD PUSH1 0x3 SHL AND SHR NOT SWAP2 PUSH1 0x4 CALLDATALOAD ADD ADD CALLDATALOAD AND SWAP1 SSTORE DUP5 DUP1 PUSH2 0xEB4 JUMP JUMPDEST SWAP1 SWAP2 PUSH1 0x20 PUSH1 0x1 DUP2 SWAP3 PUSH1 0x24 DUP7 PUSH1 0x4 CALLDATALOAD ADD ADD CALLDATALOAD DUP2 SSTORE ADD SWAP4 ADD SWAP2 ADD PUSH2 0xE92 JUMP JUMPDEST PUSH2 0xF49 SWAP1 PUSH1 0x2 DUP4 ADD PUSH1 0x0 MSTORE PUSH1 0x20 PUSH1 0x0 KECCAK256 PUSH1 0x1F PUSH1 0x4 CALLDATALOAD PUSH1 0x4 ADD CALLDATALOAD ADD PUSH1 0x5 SHR DUP2 ADD SWAP2 PUSH1 0x20 PUSH1 0x4 CALLDATALOAD PUSH1 0x4 ADD CALLDATALOAD LT PUSH2 0xDF0 JUMPI PUSH1 0x1F ADD PUSH1 0x5 SHR ADD SWAP1 PUSH2 0x1F72 JUMP JUMPDEST DUP5 PUSH2 0xB0A JUMP JUMPDEST PUSH2 0xF68 SWAP2 POP PUSH1 0x20 RETURNDATASIZE PUSH1 0x20 GT PUSH2 0x47A JUMPI PUSH2 0x46B DUP2 DUP4 PUSH2 0x1D7F JUMP JUMPDEST DUP5 PUSH2 0x6DE JUMP JUMPDEST PUSH1 0x40 MLOAD PUSH3 0x461BCD PUSH1 0xE5 SHL DUP2 MSTORE PUSH1 0x20 PUSH1 0x4 DUP3 ADD MSTORE PUSH1 0xD PUSH1 0x24 DUP3 ADD MSTORE PUSH13 0x546F6F206D616E792074616773 PUSH1 0x98 SHL PUSH1 0x44 DUP3 ADD MSTORE PUSH1 0x64 SWAP1 REVERT JUMPDEST PUSH1 0x40 MLOAD PUSH3 0x461BCD PUSH1 0xE5 SHL DUP2 MSTORE PUSH1 0x20 PUSH1 0x4 DUP3 ADD MSTORE PUSH1 0x16 PUSH1 0x24 DUP3 ADD MSTORE PUSH22 0x92DCECC2D8D2C840C6DEDCE8CADCE840D8CADCCEE8D PUSH1 0x53 SHL PUSH1 0x44 DUP3 ADD MSTORE PUSH1 0x64 SWAP1 REVERT JUMPDEST POP PUSH2 0x1F4 PUSH1 0x4 CALLDATALOAD PUSH1 0x4 ADD CALLDATALOAD GT ISZERO PUSH2 0xA3E JUMP JUMPDEST CALLVALUE PUSH2 0x232 JUMPI PUSH1 0x40 CALLDATASIZE PUSH1 0x3 NOT ADD SLT PUSH2 0x232 JUMPI PUSH2 0x100C PUSH2 0x1CE8 JUMP JUMPDEST PUSH1 0x4 CALLDATALOAD PUSH1 0x0 MSTORE PUSH1 0x4 PUSH1 0x20 MSTORE PUSH1 0x40 PUSH1 0x0 KECCAK256 SWAP1 PUSH1 0x1 DUP1 PUSH1 0xA0 SHL SUB AND PUSH1 0x0 MSTORE PUSH1 0x20 MSTORE PUSH1 0x40 PUSH1 0x0 KECCAK256 PUSH1 0xFF DUP2 SLOAD AND PUSH2 0x1073 PUSH1 0x1 DUP4 ADD SLOAD SWAP3 PUSH1 0x3 PUSH1 0xFF PUSH1 0x2 DUP4 ADD SLOAD AND SWAP2 ADD SLOAD SWAP1 PUSH1 0x40 MLOAD SWAP5 DUP6 SWAP5 DUP6 SWAP1 SWAP5 SWAP4 SWAP3 PUSH1 0x60 SWAP3 PUSH1 0x80 DUP4 ADD SWAP7 ISZERO ISZERO DUP4 MSTORE PUSH1 0x20 DUP4 ADD MSTORE ISZERO ISZERO PUSH1 0x40 DUP3 ADD MSTORE ADD MSTORE JUMP JUMPDEST SUB SWAP1 RETURN JUMPDEST CALLVALUE PUSH2 0x232 JUMPI PUSH1 0x20 DUP1 PUSH1 0x3 NOT CALLDATASIZE ADD SLT PUSH2 0x232 JUMPI PUSH1 0x4 CALLDATALOAD PUSH2 0x1099 PUSH1 0x2 SLOAD DUP3 LT PUSH2 0x1FB7 JUMP JUMPDEST PUSH1 0x0 MSTORE PUSH1 0x3 DUP2 MSTORE PUSH1 0x40 PUSH1 0x0 KECCAK256 PUSH1 0x1 DUP1 PUSH1 0xA0 SHL SUB PUSH1 0x1 DUP3 ADD SLOAD AND SWAP1 PUSH1 0x3 DUP2 ADD SWAP1 PUSH1 0x5 DUP2 ADD SLOAD PUSH1 0x6 DUP3 ADD SLOAD PUSH1 0x7 DUP4 ADD SLOAD PUSH1 0x8 DUP5 ADD SLOAD SWAP1 PUSH1 0x9 DUP6 ADD SLOAD SWAP3 PUSH1 0xA DUP7 ADD SLOAD SWAP5 PUSH1 0xB DUP8 ADD SLOAD SWAP10 PUSH2 0x10F0 PUSH1 0x2 PUSH1 0xC DUP11 ADD SLOAD SWAP10 ADD PUSH2 0x1DA1 JUMP JUMPDEST SWAP1 DUP10 SLOAD SWAP2 PUSH2 0x10FD DUP4 PUSH2 0x20A5 JUMP JUMPDEST SWAP3 PUSH2 0x110B PUSH1 0x40 MLOAD SWAP5 DUP6 PUSH2 0x1D7F JUMP JUMPDEST DUP1 DUP5 MSTORE DUP3 DUP5 ADD DUP1 SWAP13 PUSH1 0x0 MSTORE DUP4 PUSH1 0x0 KECCAK256 DUP5 PUSH1 0x0 SWAP3 JUMPDEST DUP5 DUP5 LT PUSH2 0x11ED JUMPI POP POP POP POP POP PUSH2 0x1147 SWAP1 PUSH1 0x40 MLOAD SWAP13 DUP14 MSTORE DUP3 DUP14 PUSH2 0x180 SWAP2 DUP3 SWAP2 ADD MSTORE DUP14 ADD SWAP1 PUSH2 0x1E47 JUMP JUMPDEST SWAP2 DUP12 DUP4 SUB PUSH1 0x40 DUP14 ADD MSTORE MLOAD SWAP1 DUP2 DUP4 MSTORE DUP1 DUP4 ADD SWAP3 DUP2 DUP4 PUSH1 0x5 SHL DUP3 ADD ADD SWAP12 SWAP4 PUSH1 0x0 SWAP2 JUMPDEST DUP5 DUP4 LT PUSH2 0x11BE JUMPI POP POP POP POP POP POP SWAP2 PUSH1 0xFF SWAP6 SWAP4 SWAP2 DUP10 SWAP11 SWAP6 SWAP4 PUSH1 0x60 DUP12 ADD MSTORE PUSH1 0x80 DUP11 ADD MSTORE PUSH1 0xA0 DUP10 ADD MSTORE PUSH1 0xC0 DUP9 ADD MSTORE PUSH1 0xE0 DUP8 ADD MSTORE PUSH2 0x100 DUP7 ADD MSTORE DUP2 DUP2 AND ISZERO ISZERO PUSH2 0x120 DUP7 ADD MSTORE PUSH1 0x8 SHR AND ISZERO ISZERO PUSH2 0x140 DUP5 ADD MSTORE PUSH2 0x160 DUP4 ADD MSTORE SUB SWAP1 RETURN JUMPDEST SWAP1 SWAP2 SWAP3 SWAP4 SWAP5 SWAP13 DUP5 DUP1 DUP16 PUSH1 0x1 SWAP4 PUSH2 0x11DD SWAP2 PUSH1 0x1F NOT DUP8 DUP4 SUB ADD DUP9 MSTORE MLOAD PUSH2 0x1E47 JUMP JUMPDEST SWAP16 ADD SWAP4 ADD SWAP4 ADD SWAP2 SWAP5 SWAP4 SWAP3 SWAP1 PUSH2 0x1167 JUMP JUMPDEST PUSH1 0x1 SWAP2 DUP3 SWAP2 PUSH2 0x11FB DUP6 PUSH2 0x1DA1 JUMP JUMPDEST DUP2 MSTORE ADD SWAP3 ADD SWAP3 ADD SWAP2 SWAP1 DUP6 SWAP1 PUSH2 0x111F JUMP JUMPDEST CALLVALUE PUSH2 0x232 JUMPI PUSH1 0x0 CALLDATASIZE PUSH1 0x3 NOT ADD SLT PUSH2 0x232 JUMPI PUSH1 0x2 SLOAD PUSH2 0x1228 DUP2 PUSH2 0x20BD JUMP JUMPDEST SWAP1 PUSH1 0x0 SWAP1 PUSH1 0x0 JUMPDEST DUP2 DUP2 LT PUSH2 0x12B4 JUMPI POP POP PUSH2 0x1241 DUP2 PUSH2 0x20BD JUMP JUMPDEST SWAP2 PUSH1 0x0 JUMPDEST DUP3 DUP2 LT PUSH2 0x1290 JUMPI DUP4 PUSH1 0x40 MLOAD DUP1 SWAP2 PUSH1 0x20 DUP1 DUP4 ADD DUP2 DUP5 MSTORE DUP3 MLOAD DUP1 SWAP2 MSTORE DUP2 PUSH1 0x40 DUP6 ADD SWAP4 ADD SWAP2 PUSH1 0x0 JUMPDEST DUP3 DUP2 LT PUSH2 0x1279 JUMPI POP POP POP POP SUB SWAP1 RETURN JUMPDEST DUP4 MLOAD DUP6 MSTORE DUP7 SWAP6 POP SWAP4 DUP2 ADD SWAP4 SWAP3 DUP2 ADD SWAP3 PUSH1 0x1 ADD PUSH2 0x126A JUMP JUMPDEST DUP1 PUSH2 0x129E PUSH2 0x12AF SWAP3 DUP5 PUSH2 0x20EF JUMP JUMPDEST MLOAD PUSH2 0x12A9 DUP3 DUP8 PUSH2 0x20EF JUMP JUMPDEST MSTORE PUSH2 0x1FF6 JUMP JUMPDEST PUSH2 0x1245 JUMP JUMPDEST DUP1 PUSH1 0x0 MSTORE PUSH1 0x3 PUSH1 0x20 MSTORE PUSH1 0x40 PUSH1 0x0 KECCAK256 PUSH1 0xFF PUSH1 0xB DUP3 ADD SLOAD AND ISZERO SWAP1 DUP2 PUSH2 0x1301 JUMPI JUMPDEST POP PUSH2 0x12E6 JUMPI JUMPDEST PUSH2 0x12E1 SWAP1 PUSH2 0x1FF6 JUMP JUMPDEST PUSH2 0x122F JUMP JUMPDEST SWAP2 PUSH2 0x12F9 DUP2 DUP5 PUSH2 0x12A9 PUSH2 0x12E1 SWAP5 DUP9 PUSH2 0x20EF JUMP JUMPDEST SWAP3 SWAP1 POP PUSH2 0x12D8 JUMP JUMPDEST PUSH1 0xA SWAP2 POP ADD SLOAD TIMESTAMP LT DUP6 PUSH2 0x12D2 JUMP JUMPDEST CALLVALUE PUSH2 0x232 JUMPI PUSH1 0x0 CALLDATASIZE PUSH1 0x3 NOT ADD SLT PUSH2 0x232 JUMPI PUSH1 0x40 MLOAD PUSH32 0x0 PUSH1 0x1 PUSH1 0x1 PUSH1 0xA0 SHL SUB AND DUP2 MSTORE PUSH1 0x20 SWAP1 RETURN JUMPDEST CALLVALUE PUSH2 0x232 JUMPI PUSH1 0x40 CALLDATASIZE PUSH1 0x3 NOT ADD SLT PUSH2 0x232 JUMPI PUSH2 0x136D PUSH2 0x1CFE JUMP JUMPDEST PUSH2 0x1375 PUSH2 0x1EC4 JUMP JUMPDEST PUSH1 0x1 PUSH1 0x1 PUSH1 0xA0 SHL SUB SWAP1 DUP2 AND PUSH32 0x0 DUP3 AND DUP2 EQ PUSH2 0x1407 JUMPI PUSH1 0x0 DUP1 SLOAD PUSH1 0x40 MLOAD PUSH4 0xA9059CBB PUSH1 0xE0 SHL DUP2 MSTORE SWAP4 AND PUSH1 0x1 PUSH1 0x1 PUSH1 0xA0 SHL SUB AND PUSH1 0x4 DUP5 ADD MSTORE PUSH1 0x24 DUP1 CALLDATALOAD SWAP1 DUP5 ADD MSTORE PUSH1 0x20 SWAP2 DUP4 SWAP2 DUP3 SWAP1 DUP2 PUSH1 0x44 DUP2 ADD SUB SWAP3 GAS CALL DUP1 ISZERO PUSH2 0x481 JUMPI PUSH2 0x13EE JUMPI STOP JUMPDEST PUSH2 0x1405 SWAP1 PUSH1 0x20 RETURNDATASIZE DUP2 GT PUSH2 0x47A JUMPI PUSH2 0x46B DUP2 DUP4 PUSH2 0x1D7F JUMP JUMPDEST STOP JUMPDEST PUSH1 0x40 MLOAD PUSH3 0x461BCD PUSH1 0xE5 SHL DUP2 MSTORE PUSH1 0x20 PUSH1 0x4 DUP3 ADD MSTORE PUSH1 0x1A PUSH1 0x24 DUP3 ADD MSTORE PUSH32 0x43616E6E6F742077697468647261772047554920746F6B656E73000000000000 PUSH1 0x44 DUP3 ADD MSTORE PUSH1 0x64 SWAP1 REVERT JUMPDEST CALLVALUE PUSH2 0x232 JUMPI PUSH1 0x0 CALLDATASIZE PUSH1 0x3 NOT ADD SLT PUSH2 0x232 JUMPI PUSH1 0x20 PUSH1 0x40 MLOAD PUSH8 0xDE0B6B3A7640000 DUP2 MSTORE RETURN JUMPDEST CALLVALUE PUSH2 0x232 JUMPI PUSH1 0x0 CALLDATASIZE PUSH1 0x3 NOT ADD SLT PUSH2 0x232 JUMPI PUSH1 0x20 PUSH1 0x40 MLOAD PUSH8 0x4563918244F40000 DUP2 MSTORE RETURN JUMPDEST CALLVALUE PUSH2 0x232 JUMPI PUSH1 0x0 CALLDATASIZE PUSH1 0x3 NOT ADD SLT PUSH2 0x232 JUMPI PUSH1 0x0 SLOAD PUSH1 0x40 MLOAD PUSH1 0x1 PUSH1 0x1 PUSH1 0xA0 SHL SUB SWAP1 SWAP2 AND DUP2 MSTORE PUSH1 0x20 SWAP1 RETURN JUMPDEST CALLVALUE PUSH2 0x232 JUMPI PUSH1 0x0 CALLDATASIZE PUSH1 0x3 NOT ADD SLT PUSH2 0x232 JUMPI PUSH2 0x1405 PUSH2 0x1EC4 JUMP JUMPDEST CALLVALUE PUSH2 0x232 JUMPI PUSH1 0x0 CALLDATASIZE PUSH1 0x3 NOT ADD SLT PUSH2 0x232 JUMPI PUSH1 0x20 PUSH1 0x40 MLOAD PUSH8 0x8AC7230489E80000 DUP2 MSTORE RETURN JUMPDEST CALLVALUE PUSH2 0x232 JUMPI PUSH1 0x0 CALLDATASIZE PUSH1 0x3 NOT ADD SLT PUSH2 0x232 JUMPI PUSH2 0x1510 PUSH2 0x1EC4 JUMP JUMPDEST PUSH1 0x0 DUP1 SLOAD PUSH1 0x1 PUSH1 0x1 PUSH1 0xA0 SHL SUB NOT DUP2 AND DUP3 SSTORE PUSH1 0x1 PUSH1 0x1 PUSH1 0xA0 SHL SUB AND PUSH32 0x8BE0079C531659141344CD1FD0A4F28419497F9722A3DAAFE3B4186F6B6457E0 DUP3 DUP1 LOG3 STOP JUMPDEST CALLVALUE PUSH2 0x232 JUMPI PUSH1 0x0 CALLDATASIZE PUSH1 0x3 NOT ADD SLT PUSH2 0x232 JUMPI PUSH1 0x20 PUSH1 0x2 SLOAD PUSH1 0x40 MLOAD SWAP1 DUP2 MSTORE RETURN JUMPDEST CALLVALUE PUSH2 0x232 JUMPI PUSH1 0x20 CALLDATASIZE PUSH1 0x3 NOT ADD SLT PUSH2 0x232 JUMPI PUSH1 0x1 PUSH1 0x1 PUSH1 0xA0 SHL SUB PUSH2 0x158F PUSH2 0x1CFE JUMP JUMPDEST AND DUP1 PUSH1 0x0 MSTORE PUSH1 0x7 PUSH1 0x20 MSTORE PUSH1 0x40 PUSH1 0x0 KECCAK256 SLOAD PUSH1 0x8 PUSH1 0x20 MSTORE PUSH1 0x40 PUSH1 0x0 KECCAK256 SLOAD SWAP2 DUP2 ISZERO ISZERO PUSH1 0x0 EQ PUSH2 0x15FD JUMPI PUSH2 0x2710 SWAP3 DUP4 DUP2 MUL SWAP4 DUP2 DUP6 DIV EQ DUP2 ISZERO OR ISZERO PUSH2 0x43E JUMPI PUSH2 0x15D5 DUP4 PUSH1 0x80 SWAP6 PUSH2 0x2005 JUMP JUMPDEST SWAP2 JUMPDEST PUSH1 0x0 MSTORE PUSH1 0x6 PUSH1 0x20 MSTORE PUSH1 0x40 PUSH1 0x0 KECCAK256 SLOAD SWAP3 PUSH1 0x40 MLOAD SWAP4 DUP5 MSTORE PUSH1 0x20 DUP5 ADD MSTORE PUSH1 0x40 DUP4 ADD MSTORE PUSH1 0x60 DUP3 ADD MSTORE RETURN JUMPDEST PUSH1 0x80 SWAP3 PUSH1 0x0 SWAP2 PUSH2 0x15D7 JUMP JUMPDEST CALLVALUE PUSH2 0x232 JUMPI PUSH1 0x40 CALLDATASIZE PUSH1 0x3 NOT ADD SLT PUSH2 0x232 JUMPI PUSH1 0x20 PUSH2 0x162E PUSH2 0x1626 PUSH2 0x1CE8 JUMP JUMPDEST PUSH1 0x4 CALLDATALOAD PUSH2 0x2035 JUMP JUMPDEST PUSH1 0x40 MLOAD SWAP1 ISZERO ISZERO DUP2 MSTORE RETURN JUMPDEST CALLVALUE PUSH2 0x232 JUMPI PUSH1 0x0 CALLDATASIZE PUSH1 0x3 NOT ADD SLT PUSH2 0x232 JUMPI PUSH1 0x20 PUSH1 0x40 MLOAD PUSH9 0x56BC75E2D63100000 DUP2 MSTORE RETURN JUMPDEST CALLVALUE PUSH2 0x232 JUMPI PUSH1 0x20 CALLDATASIZE PUSH1 0x3 NOT ADD SLT PUSH2 0x232 JUMPI PUSH1 0x4 CALLDATALOAD PUSH2 0x1678 PUSH2 0x1EC4 JUMP JUMPDEST PUSH2 0xE10 DUP2 LT ISZERO SWAP1 DUP2 PUSH2 0x16C3 JUMPI JUMPDEST POP ISZERO PUSH2 0x168D JUMPI STOP JUMPDEST PUSH1 0x40 MLOAD PUSH3 0x461BCD PUSH1 0xE5 SHL DUP2 MSTORE PUSH1 0x20 PUSH1 0x4 DUP3 ADD MSTORE PUSH1 0xE PUSH1 0x24 DUP3 ADD MSTORE PUSH14 0x496E76616C69642077696E646F77 PUSH1 0x90 SHL PUSH1 0x44 DUP3 ADD MSTORE PUSH1 0x64 SWAP1 REVERT JUMPDEST PUSH3 0x93A80 SWAP2 POP GT ISZERO DUP2 PUSH2 0x1685 JUMP JUMPDEST CALLVALUE PUSH2 0x232 JUMPI PUSH1 0x20 CALLDATASIZE PUSH1 0x3 NOT ADD SLT PUSH2 0x232 JUMPI PUSH1 0x4 CALLDATALOAD PUSH1 0x0 MSTORE PUSH1 0x3 PUSH1 0x20 MSTORE PUSH1 0x20 PUSH1 0x40 PUSH1 0x0 KECCAK256 DUP1 SLOAD SWAP1 PUSH1 0x1 DUP1 PUSH1 0xA0 SHL SUB PUSH1 0x1 DUP3 ADD SLOAD AND PUSH1 0xFF PUSH2 0x1712 PUSH1 0x2 DUP5 ADD PUSH2 0x1DA1 JUMP JUMPDEST SWAP3 PUSH1 0x4 DUP2 ADD SLOAD SWAP4 PUSH1 0x5 DUP3 ADD SLOAD PUSH1 0x6 DUP4 ADD SLOAD PUSH1 0x7 DUP5 ADD SLOAD PUSH1 0x8 DUP6 ADD SLOAD SWAP2 PUSH1 0x9 DUP7 ADD SLOAD SWAP4 PUSH2 0x1767 PUSH1 0xA DUP9 ADD SLOAD SWAP7 PUSH1 0xC PUSH1 0xB DUP11 ADD SLOAD SWAP10 ADD SLOAD SWAP11 PUSH1 0x40 MLOAD SWAP15 DUP16 SWAP15 DUP16 SWAP1 DUP2 MSTORE ADD MSTORE PUSH1 0x40 DUP14 PUSH2 0x1A0 SWAP2 DUP3 SWAP2 ADD MSTORE DUP14 ADD SWAP1 PUSH2 0x1E47 JUMP JUMPDEST SWAP10 PUSH1 0x60 DUP13 ADD MSTORE PUSH1 0x80 DUP12 ADD MSTORE PUSH1 0xA0 DUP11 ADD MSTORE PUSH1 0xC0 DUP10 ADD MSTORE PUSH1 0xE0 DUP9 ADD MSTORE PUSH2 0x100 DUP8 ADD MSTORE PUSH2 0x120 DUP7 ADD MSTORE DUP2 DUP2 AND ISZERO ISZERO PUSH2 0x140 DUP7 ADD MSTORE PUSH1 0x8 SHR AND ISZERO ISZERO PUSH2 0x160 DUP5 ADD MSTORE PUSH2 0x180 DUP4 ADD MSTORE SUB SWAP1 RETURN JUMPDEST CALLVALUE PUSH2 0x232 JUMPI PUSH1 0x0 CALLDATASIZE PUSH1 0x3 NOT ADD SLT PUSH2 0x232 JUMPI PUSH1 0x20 PUSH1 0x40 MLOAD PUSH3 0x15180 DUP2 MSTORE RETURN JUMPDEST CALLVALUE PUSH2 0x232 JUMPI PUSH1 0x20 CALLDATASIZE PUSH1 0x3 NOT ADD SLT PUSH2 0x232 JUMPI PUSH8 0xFFFFFFFFFFFFFFFF PUSH1 0x4 CALLDATALOAD DUP2 DUP2 GT PUSH2 0x232 JUMPI PUSH2 0x17FE SWAP1 CALLDATASIZE SWAP1 PUSH1 0x4 ADD PUSH2 0x1D14 JUMP JUMPDEST PUSH1 0x0 JUMPDEST DUP2 DUP2 LT PUSH2 0x180A JUMPI STOP JUMPDEST PUSH2 0x181F CALLER PUSH2 0x1819 DUP4 DUP6 DUP8 PUSH2 0x2025 JUMP JUMPDEST CALLDATALOAD PUSH2 0x2035 JUMP JUMPDEST PUSH2 0x1832 JUMPI JUMPDEST PUSH2 0x182D SWAP1 PUSH2 0x1FF6 JUMP JUMPDEST PUSH2 0x1801 JUMP JUMPDEST PUSH2 0x183D DUP2 DUP4 DUP6 PUSH2 0x2025 JUMP JUMPDEST CALLDATALOAD ADDRESS EXTCODESIZE ISZERO PUSH2 0x232 JUMPI PUSH1 0x40 MLOAD SWAP1 PUSH4 0x962EF79 PUSH1 0xE0 SHL DUP3 MSTORE PUSH1 0x4 DUP3 ADD MSTORE PUSH1 0x24 PUSH1 0x0 DUP3 DUP3 DUP2 DUP4 ADDRESS GAS CALL DUP1 ISZERO PUSH2 0x481 JUMPI PUSH2 0x1875 JUMPI JUMPDEST POP POP PUSH2 0x1824 JUMP JUMPDEST DUP6 DUP3 GT PUSH2 0x1889 JUMPI POP PUSH1 0x40 MSTORE PUSH2 0x182D DUP6 PUSH2 0x186E JUMP JUMPDEST PUSH4 0x4E487B71 PUSH1 0xE0 SHL PUSH1 0x0 SWAP1 DUP2 MSTORE PUSH1 0x41 PUSH1 0x4 MSTORE REVERT JUMPDEST CALLVALUE PUSH2 0x232 JUMPI PUSH1 0x20 CALLDATASIZE PUSH1 0x3 NOT ADD SLT PUSH2 0x232 JUMPI PUSH1 0x1 PUSH1 0x1 PUSH1 0xA0 SHL SUB PUSH2 0x18BE PUSH2 0x1CFE JUMP JUMPDEST AND PUSH1 0x0 MSTORE PUSH1 0x8 PUSH1 0x20 MSTORE PUSH1 0x20 PUSH1 0x40 PUSH1 0x0 KECCAK256 SLOAD PUSH1 0x40 MLOAD SWAP1 DUP2 MSTORE RETURN JUMPDEST CALLVALUE PUSH2 0x232 JUMPI PUSH1 0x20 CALLDATASIZE PUSH1 0x3 NOT ADD SLT PUSH2 0x232 JUMPI PUSH1 0x1 PUSH1 0x1 PUSH1 0xA0 SHL SUB PUSH2 0x18F8 PUSH2 0x1CFE JUMP JUMPDEST AND PUSH1 0x0 MSTORE PUSH1 0x7 PUSH1 0x20 MSTORE PUSH1 0x20 PUSH1 0x40 PUSH1 0x0 KECCAK256 SLOAD PUSH1 0x40 MLOAD SWAP1 DUP2 MSTORE RETURN JUMPDEST CALLVALUE PUSH2 0x232 JUMPI PUSH1 0x20 DUP1 PUSH1 0x3 NOT CALLDATASIZE ADD SLT PUSH2 0x232 JUMPI PUSH1 0x4 CALLDATALOAD SWAP1 PUSH1 0x1 SWAP2 PUSH1 0x2 DUP4 SLOAD EQ PUSH2 0x1C28 JUMPI PUSH1 0x2 DUP4 SSTORE PUSH2 0x1944 PUSH1 0x2 SLOAD DUP3 LT PUSH2 0x1FB7 JUMP JUMPDEST DUP1 PUSH1 0x0 MSTORE PUSH1 0x3 DUP3 MSTORE PUSH1 0x40 PUSH1 0x0 KECCAK256 PUSH1 0xB DUP2 ADD PUSH1 0xFF DUP2 SLOAD AND ISZERO PUSH2 0x1BEE JUMPI DUP3 PUSH1 0x0 MSTORE PUSH1 0x4 DUP5 MSTORE PUSH1 0x40 PUSH1 0x0 KECCAK256 CALLER PUSH1 0x0 MSTORE DUP5 MSTORE PUSH1 0x40 PUSH1 0x0 KECCAK256 SWAP1 DUP6 DUP3 ADD SWAP2 DUP3 SLOAD ISZERO PUSH2 0x1BB9 JUMPI PUSH1 0x2 DUP2 ADD DUP1 SLOAD PUSH1 0xFF DUP2 AND PUSH2 0x1B82 JUMPI DUP9 SWAP1 PUSH1 0xFF NOT AND OR SWAP1 SSTORE CALLER PUSH1 0x0 MSTORE PUSH1 0x7 DUP7 MSTORE PUSH1 0x40 PUSH1 0x0 KECCAK256 PUSH2 0x19B1 DUP2 SLOAD PUSH2 0x1FF6 JUMP JUMPDEST SWAP1 SSTORE PUSH1 0xFF PUSH1 0x0 SWAP2 SLOAD AND PUSH1 0xFF DUP4 SLOAD PUSH1 0x8 SHR AND ISZERO ISZERO SWAP1 ISZERO ISZERO EQ PUSH1 0x0 EQ PUSH2 0x1B06 JUMPI POP SLOAD PUSH1 0x8 SHR PUSH1 0xFF AND SWAP2 DUP3 ISZERO PUSH2 0x1AFB JUMPI PUSH1 0x7 DUP2 ADD SLOAD SWAP3 JUMPDEST ISZERO PUSH2 0x1AF1 JUMPI PUSH1 0x8 ADD SLOAD SWAP1 JUMPDEST SLOAD SWAP1 DUP2 DUP2 MUL SWAP1 DUP1 DUP3 DIV DUP4 EQ SWAP1 ISZERO OR ISZERO PUSH2 0x43E JUMPI PUSH2 0x1A16 SWAP3 PUSH2 0x1A10 SWAP2 PUSH2 0x2005 JUMP JUMPDEST SWAP1 PUSH2 0x1F89 JUMP JUMPDEST PUSH1 0x40 MLOAD PUSH4 0xA9059CBB PUSH1 0xE0 SHL DUP2 MSTORE CALLER PUSH1 0x4 DUP3 ADD MSTORE PUSH1 0x24 DUP2 ADD DUP3 SWAP1 MSTORE SWAP1 SWAP3 DUP1 DUP3 PUSH1 0x44 DUP2 PUSH1 0x0 PUSH1 0x1 PUSH1 0x1 PUSH1 0xA0 SHL SUB PUSH32 0x0 AND GAS CALL SWAP2 DUP3 ISZERO PUSH2 0x481 JUMPI PUSH32 0x3300BDB359CFB956935BCA32E9DB727413EAB1CA84341F2E36CAEA85BB796968 SWAP3 PUSH2 0x1AD4 JUMPI JUMPDEST POP CALLER PUSH1 0x0 MSTORE PUSH1 0x6 DUP2 MSTORE PUSH1 0x40 PUSH1 0x0 KECCAK256 PUSH2 0x1AAB DUP2 SLOAD PUSH2 0x1FF6 JUMP JUMPDEST SWAP1 SSTORE CALLER PUSH1 0x0 MSTORE PUSH1 0x8 DUP2 MSTORE PUSH1 0x40 PUSH1 0x0 KECCAK256 PUSH2 0x1AC4 DUP2 SLOAD PUSH2 0x1FF6 JUMP JUMPDEST SWAP1 SSTORE JUMPDEST PUSH1 0x40 MLOAD SWAP4 DUP5 MSTORE CALLER SWAP4 LOG3 DUP1 SSTORE STOP JUMPDEST PUSH2 0x1AEA SWAP1 DUP3 RETURNDATASIZE DUP5 GT PUSH2 0x47A JUMPI PUSH2 0x46B DUP2 DUP4 PUSH2 0x1D7F JUMP JUMPDEST POP DUP6 PUSH2 0x1A93 JUMP JUMPDEST PUSH1 0x7 ADD SLOAD SWAP1 PUSH2 0x19F0 JUMP JUMPDEST PUSH1 0x8 DUP2 ADD SLOAD SWAP3 PUSH2 0x19E5 JUMP JUMPDEST SWAP5 SWAP3 POP POP POP CALLER PUSH1 0x0 MSTORE PUSH1 0x6 DUP2 MSTORE PUSH1 0x40 PUSH1 0x0 KECCAK256 SWAP1 DUP2 SLOAD SWAP2 DUP3 ISZERO DUP1 ISZERO PUSH2 0x1B4F JUMPI JUMPDEST POP POP PUSH32 0x3300BDB359CFB956935BCA32E9DB727413EAB1CA84341F2E36CAEA85BB796968 SWAP2 POP PUSH2 0x1AC7 JUMP JUMPDEST PUSH2 0x43E JUMPI PUSH32 0x3300BDB359CFB956935BCA32E9DB727413EAB1CA84341F2E36CAEA85BB796968 SWAP3 PUSH1 0x0 NOT ADD SWAP1 SSTORE DUP6 DUP1 PUSH2 0x1B25 JUMP JUMPDEST PUSH1 0x40 MLOAD PUSH3 0x461BCD PUSH1 0xE5 SHL DUP2 MSTORE PUSH1 0x4 DUP2 ADD DUP10 SWAP1 MSTORE PUSH1 0xF PUSH1 0x24 DUP3 ADD MSTORE PUSH15 0x105B1C9958591E4818DB185A5B5959 PUSH1 0x8A SHL PUSH1 0x44 DUP3 ADD MSTORE PUSH1 0x64 SWAP1 REVERT JUMPDEST PUSH1 0x40 MLOAD PUSH3 0x461BCD PUSH1 0xE5 SHL DUP2 MSTORE PUSH1 0x4 DUP2 ADD DUP8 SWAP1 MSTORE PUSH1 0xD PUSH1 0x24 DUP3 ADD MSTORE PUSH13 0x139BC81D9BDD1948199BDD5B99 PUSH1 0x9A SHL PUSH1 0x44 DUP3 ADD MSTORE PUSH1 0x64 SWAP1 REVERT JUMPDEST PUSH1 0x40 MLOAD PUSH3 0x461BCD PUSH1 0xE5 SHL DUP2 MSTORE PUSH1 0x4 DUP2 ADD DUP6 SWAP1 MSTORE PUSH1 0x12 PUSH1 0x24 DUP3 ADD MSTORE PUSH18 0x149D5B5BDC881B9BDD081C995CDBDB1D9959 PUSH1 0x72 SHL PUSH1 0x44 DUP3 ADD MSTORE PUSH1 0x64 SWAP1 REVERT JUMPDEST PUSH1 0x40 MLOAD PUSH3 0x461BCD PUSH1 0xE5 SHL DUP2 MSTORE PUSH1 0x4 DUP2 ADD DUP4 SWAP1 MSTORE PUSH1 0x1F PUSH1 0x24 DUP3 ADD MSTORE PUSH32 0x5265656E7472616E637947756172643A207265656E7472616E742063616C6C00 PUSH1 0x44 DUP3 ADD MSTORE PUSH1 0x64 SWAP1 REVERT JUMPDEST CALLVALUE PUSH2 0x232 JUMPI PUSH1 0x40 CALLDATASIZE PUSH1 0x3 NOT ADD SLT PUSH2 0x232 JUMPI PUSH2 0x1C86 PUSH2 0x1CE8 JUMP JUMPDEST PUSH1 0x4 CALLDATALOAD PUSH1 0x0 MSTORE PUSH1 0x4 PUSH1 0x20 MSTORE PUSH1 0x40 PUSH1 0x0 KECCAK256 SWAP1 PUSH1 0x1 DUP1 PUSH1 0xA0 SHL SUB AND PUSH1 0x0 MSTORE PUSH1 0x20 MSTORE DUP1 PUSH2 0x1073 PUSH1 0x40 PUSH1 0x0 KECCAK256 PUSH1 0xFF DUP2 SLOAD AND SWAP1 PUSH1 0x1 DUP2 ADD SLOAD PUSH1 0x3 PUSH1 0xFF PUSH1 0x2 DUP5 ADD SLOAD AND SWAP3 ADD SLOAD SWAP3 DUP6 SWAP1 SWAP5 SWAP4 SWAP3 PUSH1 0x60 SWAP3 PUSH1 0x80 DUP4 ADD SWAP7 ISZERO ISZERO DUP4 MSTORE PUSH1 0x20 DUP4 ADD MSTORE ISZERO ISZERO PUSH1 0x40 DUP3 ADD MSTORE ADD MSTORE JUMP JUMPDEST PUSH1 0x24 CALLDATALOAD SWAP1 PUSH1 0x1 PUSH1 0x1 PUSH1 0xA0 SHL SUB DUP3 AND DUP3 SUB PUSH2 0x232 JUMPI JUMP JUMPDEST PUSH1 0x4 CALLDATALOAD SWAP1 PUSH1 0x1 PUSH1 0x1 PUSH1 0xA0 SHL SUB DUP3 AND DUP3 SUB PUSH2 0x232 JUMPI JUMP JUMPDEST SWAP2 DUP2 PUSH1 0x1F DUP5 ADD SLT ISZERO PUSH2 0x232 JUMPI DUP3 CALLDATALOAD SWAP2 PUSH8 0xFFFFFFFFFFFFFFFF DUP4 GT PUSH2 0x232 JUMPI PUSH1 0x20 DUP1 DUP6 ADD SWAP5 DUP5 PUSH1 0x5 SHL ADD ADD GT PUSH2 0x232 JUMPI JUMP JUMPDEST SWAP1 PUSH1 0x1 DUP3 DUP2 SHR SWAP3 AND DUP1 ISZERO PUSH2 0x1D75 JUMPI JUMPDEST PUSH1 0x20 DUP4 LT EQ PUSH2 0x1D5F JUMPI JUMP JUMPDEST PUSH4 0x4E487B71 PUSH1 0xE0 SHL PUSH1 0x0 MSTORE PUSH1 0x22 PUSH1 0x4 MSTORE PUSH1 0x24 PUSH1 0x0 REVERT JUMPDEST SWAP2 PUSH1 0x7F AND SWAP2 PUSH2 0x1D54 JUMP JUMPDEST SWAP1 PUSH1 0x1F DUP1 NOT SWAP2 ADD AND DUP2 ADD SWAP1 DUP2 LT PUSH8 0xFFFFFFFFFFFFFFFF DUP3 GT OR PUSH2 0x850 JUMPI PUSH1 0x40 MSTORE JUMP JUMPDEST SWAP1 PUSH1 0x40 MLOAD SWAP2 DUP3 PUSH1 0x0 DUP3 SLOAD SWAP3 PUSH2 0x1DB5 DUP5 PUSH2 0x1D45 JUMP JUMPDEST SWAP1 DUP2 DUP5 MSTORE PUSH1 0x1 SWAP5 DUP6 DUP2 AND SWAP1 DUP2 PUSH1 0x0 EQ PUSH2 0x1E24 JUMPI POP PUSH1 0x1 EQ PUSH2 0x1DE1 JUMPI JUMPDEST POP POP PUSH2 0x1DDF SWAP3 POP SUB DUP4 PUSH2 0x1D7F JUMP JUMPDEST JUMP JUMPDEST SWAP1 SWAP4 SWAP2 POP PUSH1 0x0 MSTORE PUSH1 0x20 SWAP1 DUP2 PUSH1 0x0 KECCAK256 SWAP4 PUSH1 0x0 SWAP2 JUMPDEST DUP2 DUP4 LT PUSH2 0x1E0C JUMPI POP POP PUSH2 0x1DDF SWAP4 POP DUP3 ADD ADD CODESIZE DUP1 PUSH2 0x1DD1 JUMP JUMPDEST DUP6 SLOAD DUP9 DUP5 ADD DUP6 ADD MSTORE SWAP5 DUP6 ADD SWAP5 DUP8 SWAP5 POP SWAP2 DUP4 ADD SWAP2 PUSH2 0x1DF4 JUMP JUMPDEST SWAP2 POP POP PUSH2 0x1DDF SWAP5 POP PUSH1 0x20 SWAP3 POP PUSH1 0xFF NOT AND DUP3 DUP5 ADD MSTORE ISZERO ISZERO PUSH1 0x5 SHL DUP3 ADD ADD CODESIZE DUP1 PUSH2 0x1DD1 JUMP JUMPDEST SWAP2 SWAP1 DUP3 MLOAD SWAP3 DUP4 DUP3 MSTORE PUSH1 0x0 JUMPDEST DUP5 DUP2 LT PUSH2 0x1E73 JUMPI POP POP DUP3 PUSH1 0x0 PUSH1 0x20 DUP1 SWAP5 SWAP6 DUP5 ADD ADD MSTORE PUSH1 0x1F DUP1 NOT SWAP2 ADD AND ADD ADD SWAP1 JUMP JUMPDEST PUSH1 0x20 DUP2 DUP4 ADD DUP2 ADD MLOAD DUP5 DUP4 ADD DUP3 ADD MSTORE ADD PUSH2 0x1E52 JUMP JUMPDEST PUSH1 0x24 CALLDATALOAD SWAP1 DUP2 ISZERO ISZERO DUP3 SUB PUSH2 0x232 JUMPI JUMP JUMPDEST DUP1 SLOAD DUP3 LT ISZERO PUSH2 0x1EAE JUMPI PUSH1 0x0 MSTORE PUSH1 0x20 PUSH1 0x0 KECCAK256 ADD SWAP1 PUSH1 0x0 SWAP1 JUMP JUMPDEST PUSH4 0x4E487B71 PUSH1 0xE0 SHL PUSH1 0x0 MSTORE PUSH1 0x32 PUSH1 0x4 MSTORE PUSH1 0x24 PUSH1 0x0 REVERT JUMPDEST PUSH1 0x0 SLOAD PUSH1 0x1 PUSH1 0x1 PUSH1 0xA0 SHL SUB AND CALLER SUB PUSH2 0x1ED8 JUMPI JUMP JUMPDEST PUSH1 0x64 PUSH1 0x40 MLOAD PUSH3 0x461BCD PUSH1 0xE5 SHL DUP2 MSTORE PUSH1 0x20 PUSH1 0x4 DUP3 ADD MSTORE PUSH1 0x20 PUSH1 0x24 DUP3 ADD MSTORE PUSH32 0x4F776E61626C653A2063616C6C6572206973206E6F7420746865206F776E6572 PUSH1 0x44 DUP3 ADD MSTORE REVERT JUMPDEST SWAP1 DUP2 PUSH1 0x20 SWAP2 SUB SLT PUSH2 0x232 JUMPI MLOAD DUP1 ISZERO ISZERO DUP2 SUB PUSH2 0x232 JUMPI SWAP1 JUMP JUMPDEST ISZERO PUSH2 0x1F3B JUMPI JUMP JUMPDEST PUSH1 0x40 MLOAD PUSH3 0x461BCD PUSH1 0xE5 SHL DUP2 MSTORE PUSH1 0x20 PUSH1 0x4 DUP3 ADD MSTORE PUSH1 0xF PUSH1 0x24 DUP3 ADD MSTORE PUSH15 0x151C985B9CD9995C8819985A5B1959 PUSH1 0x8A SHL PUSH1 0x44 DUP3 ADD MSTORE PUSH1 0x64 SWAP1 REVERT JUMPDEST DUP2 DUP2 LT PUSH2 0x1F7D JUMPI POP POP JUMP JUMPDEST PUSH1 0x0 DUP2 SSTORE PUSH1 0x1 ADD PUSH2 0x1F72 JUMP JUMPDEST SWAP2 SWAP1 DUP3 ADD DUP1 SWAP3 GT PUSH2 0x43E JUMPI JUMP JUMPDEST SWAP1 DUP1 PUSH1 0x20 SWAP4 SWAP3 DUP2 DUP5 MSTORE DUP5 DUP5 ADD CALLDATACOPY PUSH1 0x0 DUP3 DUP3 ADD DUP5 ADD MSTORE PUSH1 0x1F ADD PUSH1 0x1F NOT AND ADD ADD SWAP1 JUMP JUMPDEST ISZERO PUSH2 0x1FBE JUMPI JUMP JUMPDEST PUSH1 0x40 MLOAD PUSH3 0x461BCD PUSH1 0xE5 SHL DUP2 MSTORE PUSH1 0x20 PUSH1 0x4 DUP3 ADD MSTORE PUSH1 0x10 PUSH1 0x24 DUP3 ADD MSTORE PUSH16 0x125B9D985B1A59081C9D5B5BDC881251 PUSH1 0x82 SHL PUSH1 0x44 DUP3 ADD MSTORE PUSH1 0x64 SWAP1 REVERT JUMPDEST PUSH1 0x0 NOT DUP2 EQ PUSH2 0x43E JUMPI PUSH1 0x1 ADD SWAP1 JUMP JUMPDEST DUP2 ISZERO PUSH2 0x200F JUMPI DIV SWAP1 JUMP JUMPDEST PUSH4 0x4E487B71 PUSH1 0xE0 SHL PUSH1 0x0 MSTORE PUSH1 0x12 PUSH1 0x4 MSTORE PUSH1 0x24 PUSH1 0x0 REVERT JUMPDEST SWAP2 SWAP1 DUP2 LT ISZERO PUSH2 0x1EAE JUMPI PUSH1 0x5 SHL ADD SWAP1 JUMP JUMPDEST PUSH1 0x2 SLOAD DUP2 LT ISZERO PUSH2 0x209E JUMPI PUSH1 0x0 MSTORE PUSH1 0x3 PUSH1 0x20 MSTORE PUSH1 0x40 PUSH1 0x0 KECCAK256 SWAP1 PUSH1 0x4 PUSH1 0x20 MSTORE PUSH1 0x40 PUSH1 0x0 KECCAK256 SWAP1 PUSH1 0x1 DUP1 PUSH1 0xA0 SHL SUB AND PUSH1 0x0 MSTORE PUSH1 0x20 MSTORE PUSH1 0xFF PUSH1 0xB PUSH1 0x40 PUSH1 0x0 KECCAK256 SWAP3 ADD SLOAD AND SWAP1 DUP2 PUSH2 0x2090 JUMPI JUMPDEST DUP2 PUSH2 0x2083 JUMPI POP SWAP1 JUMP JUMPDEST PUSH1 0xFF SWAP2 POP PUSH1 0x2 ADD SLOAD AND ISZERO SWAP1 JUMP JUMPDEST PUSH1 0x1 DUP2 ADD SLOAD ISZERO ISZERO SWAP2 POP PUSH2 0x207A JUMP JUMPDEST POP POP PUSH1 0x0 SWAP1 JUMP JUMPDEST PUSH8 0xFFFFFFFFFFFFFFFF DUP2 GT PUSH2 0x850 JUMPI PUSH1 0x5 SHL PUSH1 0x20 ADD SWAP1 JUMP JUMPDEST SWAP1 PUSH2 0x20C7 DUP3 PUSH2 0x20A5 JUMP JUMPDEST PUSH2 0x20D4 PUSH1 0x40 MLOAD SWAP2 DUP3 PUSH2 0x1D7F JUMP JUMPDEST DUP3 DUP2 MSTORE DUP1 SWAP3 PUSH2 0x20E5 PUSH1 0x1F NOT SWAP2 PUSH2 0x20A5 JUMP JUMPDEST ADD SWAP1 PUSH1 0x20 CALLDATASIZE SWAP2 ADD CALLDATACOPY JUMP JUMPDEST DUP1 MLOAD DUP3 LT ISZERO PUSH2 0x1EAE JUMPI PUSH1 0x20 SWAP2 PUSH1 0x5 SHL ADD ADD SWAP1 JUMP INVALID LOG2 PUSH5 0x6970667358 0x22 SLT KECCAK256 CREATE PUSH1 0x58 0xC2 RETURNDATACOPY SWAP6 0xAD 0xE5 0xC0 POP 0x5F 0xD6 PUSH32 0xD892247D6D1171C36495B1E700714599B5678C64736F6C634300081300330000 "},"methodIdentifiers":{"MAX_VOTE_STAKE()":"95beacd5","MIN_VOTE_STAKE()":"95beeae8","SUBMISSION_FEE()":"7d48536d","SUBMITTER_BONUS()":"415374f9","VERIFICATION_WINDOW()":"355a34c8","batchClaimRewards(uint256[])":"29183872","canClaimReward(uint256,address)":"485de6ff","claimRewards(uint256)":"0962ef79","correctVotesCount(address)":"1a1f194b","emergencyWithdraw(address,uint256)":"95ccea67","getActiveRumors()":"b108395a","getRumorDetails(uint256)":"cfd52a37","getRumorVoters(uint256)":"e3649820","getTotalRumors()":"5a4507a8","getUserStats(address)":"4e43603a","getUserVote(uint256,address)":"03c7881a","guiToken()":"993c44f0","owner()":"8da5cb5b","pause()":"8456cb59","renounceOwnership()":"715018a6","resolveRumor(uint256,bool)":"e4f34faf","rumorVoters(uint256,uint256)":"f198f593","rumors(uint256)":"3d117257","submitRumor(string,string[])":"d352cad8","totalVotesCount(address)":"0e776aa5","transferOwnership(address)":"f2fde38b","updateVerificationWindow(uint256)":"3e8554a2","userReputation(address)":"e503bb05","vote(uint256,bool,uint256)":"d46a5d7e","votes(uint256,address)":"d23254b4"}}}}}