{
  "_format": "hh-sol-artifact-1",
  "contractName": "GUIToken",
  "sourceName": "contracts/GUIToken.sol",
  "abi": [
    {
      "inputs": [],
      "stateMutability": "nonpayable",
      "type": "constructor"
    },
    {
      "anonymous": false,
      "inputs": [
        {
          "indexed": true,
          "internalType": "address",
          "name": "owner",
          "type": "address"
        },
        {
          "indexed": true,
          "internalType": "address",
          "name": "spender",
          "type": "address"
        },
        {
          "indexed": false,
          "internalType": "uint256",
          "name": "value",
          "type": "uint256"
        }
      ],
      "name": "Approval",
      "type": "event"
    },
    {
      "anonymous": false,
      "inputs": [
        {
          "indexed": true,
          "internalType": "address",
          "name": "previousOwner",
          "type": "address"
        },
        {
          "indexed": true,
          "internalType": "address",
          "name": "newOwner",
          "type": "address"
        }
      ],
      "name": "OwnershipTransferred",
      "type": "event"
    },
    {
      "anonymous": false,
      "inputs": [
        {
          "indexed": true,
          "internalType": "address",
          "name": "user",
          "type": "address"
        },
        {
          "indexed": false,
          "internalType": "uint256",
          "name": "amount",
          "type": "uint256"
        }
      ],
      "name": "TokensClaimed",
      "type": "event"
    },
    {
      "anonymous": false,
      "inputs": [
        {
          "indexed": true,
          "internalType": "address",
          "name": "from",
          "type": "address"
        },
        {
          "indexed": true,
          "internalType": "address",
          "name": "to",
          "type": "address"
        },
        {
          "indexed": false,
          "internalType": "uint256",
          "name": "value",
          "type": "uint256"
        }
      ],
      "name": "Transfer",
      "type": "event"
    },
    {
      "inputs": [],
      "name": "FAUCET_AMOUNT",
      "outputs": [
        {
          "internalType": "uint256",
          "name": "",
          "type": "uint256"
        }
      ],
      "stateMutability": "view",
      "type": "function"
    },
    {
      "inputs": [],
      "name": "FAUCET_COOLDOWN",
      "outputs": [
        {
          "internalType": "uint256",
          "name": "",
          "type": "uint256"
        }
      ],
      "stateMutability": "view",
      "type": "function"
    },
    {
      "inputs": [
        {
          "internalType": "address",
          "name": "owner",
          "type": "address"
        },
        {
          "internalType": "address",
          "name": "spender",
          "type": "address"
        }
      ],
      "name": "allowance",
      "outputs": [
        {
          "internalType": "uint256",
          "name": "",
          "type": "uint256"
        }
      ],
      "stateMutability": "view",
      "type": "function"
    },
    {
      "inputs": [
        {
          "internalType": "address",
          "name": "spender",
          "type": "address"
        },
        {
          "internalType": "uint256",
          "name": "amount",
          "type": "uint256"
        }
      ],
      "name": "approve",
      "outputs": [
        {
          "internalType": "bool",
          "name": "",
          "type": "bool"
        }
      ],
      "stateMutability": "nonpayable",
      "type": "function"
    },
    {
      "inputs": [
        {
          "internalType": "address",
          "name": "account",
          "type": "address"
        }
      ],
      "name": "balanceOf",
      "outputs": [
        {
          "internalType": "uint256",
          "name": "",
          "type": "uint256"
        }
      ],
      "stateMutability": "view",
      "type": "function"
    },
    {
      "inputs": [],
      "name": "decimals",
      "outputs": [
        {
          "internalType": "uint8",
          "name": "",
          "type": "uint8"
        }
      ],
      "stateMutability": "view",
      "type": "function"
    },
    {
      "inputs": [
        {
          "internalType": "address",
          "name": "spender",
          "type": "address"
        },
        {
          "internalType": "uint256",
          "name": "subtractedValue",
          "type": "uint256"
        }
      ],
      "name": "decreaseAllowance",
      "outputs": [
        {
          "internalType": "bool",
          "name": "",
          "type": "bool"
        }
      ],
      "stateMutability": "nonpayable",
      "type": "function"
    },
    {
      "inputs": [],
      "name": "faucet",
      "outputs": [],
      "stateMutability": "nonpayable",
      "type": "function"
    },
    {
      "inputs": [
        {
          "internalType": "address",
          "name": "",
          "type": "address"
        }
      ],
      "name": "hasClaimed",
      "outputs": [
        {
          "internalType": "bool",
          "name": "",
          "type": "bool"
        }
      ],
      "stateMutability": "view",
      "type": "function"
    },
    {
      "inputs": [
        {
          "internalType": "address",
          "name": "spender",
          "type": "address"
        },
        {
          "internalType": "uint256",
          "name": "addedValue",
          "type": "uint256"
        }
      ],
      "name": "increaseAllowance",
      "outputs": [
        {
          "internalType": "bool",
          "name": "",
          "type": "bool"
        }
      ],
      "stateMutability": "nonpayable",
      "type": "function"
    },
    {
      "inputs": [
        {
          "internalType": "address",
          "name": "",
          "type": "address"
        }
      ],
      "name": "lastClaimTime",
      "outputs": [
        {
          "internalType": "uint256",
          "name": "",
          "type": "uint256"
        }
      ],
      "stateMutability": "view",
      "type": "function"
    },
    {
      "inputs": [
        {
          "internalType": "address",
          "name": "to",
          "type": "address"
        },
        {
          "internalType": "uint256",
          "name": "amount",
          "type": "uint256"
        }
      ],
      "name": "mint",
      "outputs": [],
      "stateMutability": "nonpayable",
      "type": "function"
    },
    {
      "inputs": [],
      "name": "name",
      "outputs": [
        {
          "internalType": "string",
          "name": "",
          "type": "string"
        }
      ],
      "stateMutability": "view",
      "type": "function"
    },
    {
      "inputs": [],
      "name": "owner",
      "outputs": [
        {
          "internalType": "address",
          "name": "",
          "type": "address"
        }
      ],
      "stateMutability": "view",
      "type": "function"
    },
    {
      "inputs": [],
      "name": "renounceOwnership",
      "outputs": [],
      "stateMutability": "nonpayable",
      "type": "function"
    },
    {
      "inputs": [],
      "name": "symbol",
      "outputs": [
        {
          "internalType": "string",
          "name": "",
          "type": "string"
        }
      ],
      "stateMutability": "view",
      "type": "function"
    },
    {
      "inputs": [],
      "name": "totalSupply",
      "outputs": [
        {
          "internalType": "uint256",
          "name": "",
          "type": "uint256"
        }
      ],
      "stateMutability": "view",
      "type": "function"
    },
    {
      "inputs": [
        {
          "internalType": "address",
          "name": "to",
          "type": "address"
        },
        {
          "internalType": "uint256",
          "name": "amount",
          "type": "uint256"
        }
      ],
      "name": "transfer",
      "outputs": [
        {
          "internalType": "bool",
          "name": "",
          "type": "bool"
        }
      ],
      "stateMutability": "nonpayable",
      "type": "function"
    },
    {
      "inputs": [
        {
          "internalType": "address",
          "name": "from",
          "type": "address"
        },
        {
          "internalType": "address",
          "name": "to",
          "type": "address"
        },
        {
          "internalType": "uint256",
          "name": "amount",
          "type": "uint256"
        }
      ],
      "name": "transferFrom",
      "outputs": [
        {
          "internalType": "bool",
          "name": "",
          "type": "bool"
        }
      ],
      "stateMutability": "nonpayable",
      "type": "function"
    },
    {
      "inputs": [
        {
          "internalType": "address",
          "name": "newOwner",
          "type": "address"
        }
      ],
      "name": "transferOwnership",
      "outputs": [],
      "stateMutability": "nonpayable",
      "type": "function"
    }
  ],
  "bytecode": "0x6080346200040f576040906001600160401b03818301818111838210176200030f578352600f82526020906e43727970746f54727574682047554960881b82840152835192848401848110838211176200030f5785526003918285526247554960e81b848601528151928184116200030f578054936001938486811c9616801562000404575b87871014620003ee578190601f9687811162000398575b508790878311600114620003315760009262000325575b505060001982841b1c191690841b1781555b85519182116200030f5760049586548481811c9116801562000304575b87821014620002ef57858111620002a4575b50859085841160011462000239579383949184926000956200022d575b50501b92600019911b1c19161783555b60058054336001600160a01b03198216811790925585519291906001600160a01b03167f8be0079c531659141344cd1fd0a4f28419497f9722a3daafe3b4186f6b6457e0600080a33315620001f05750506002546a084595161401484a00000092838201809211620001db57506000917fddf252ad1be2c89b69c2b068fc378daa952ba7f163c4a11628f55a4df523b3ef9160025533835282815284832084815401905584519384523393a351610e519081620004158239f35b601190634e487b7160e01b6000525260246000fd5b6064928462461bcd60e51b845283015260248201527f45524332303a206d696e7420746f20746865207a65726f2061646472657373006044820152fd5b01519350388062000111565b9190601f198416928860005284886000209460005b8a898383106200028c575050501062000271575b50505050811b01835562000121565b01519060f884600019921b161c191690553880808062000262565b8686015189559097019694850194889350016200024e565b87600052866000208680860160051c820192898710620002e5575b0160051c019085905b828110620002d8575050620000f4565b60008155018590620002c8565b92508192620002bf565b602288634e487b7160e01b6000525260246000fd5b90607f1690620000e2565b634e487b7160e01b600052604160045260246000fd5b015190503880620000b3565b90869350601f1983169185600052896000209260005b8b82821062000381575050841162000368575b505050811b018155620000c5565b015160001983861b60f8161c191690553880806200035a565b8385015186558a9790950194938401930162000347565b90915083600052876000208780850160051c8201928a8610620003e4575b918891869594930160051c01915b828110620003d45750506200009c565b60008155859450889101620003c4565b92508192620003b6565b634e487b7160e01b600052602260045260246000fd5b95607f169562000085565b600080fdfe6080604081815260048036101561001557600080fd5b600092833560e01c90816306fdde03146109c157508063095ea7b31461099757806318160ddd1461097857806323b872dd146108ae578063313ce56714610892578063395093511461084257806340c10f191461077c57806370a0823114610745578063715018a6146106e857806373b2e80e146106aa57806376697640146106865780637d1d5d19146106685780638da5cb5b1461063f57806395d89b411461051f578063a457c2d714610478578063a9059cbb14610447578063b77cf9c61461040f578063dd62ed3e146103c6578063de5f72fd146101cd5763f2fde38b146100ff57600080fd5b346101c95760203660031901126101c957610118610aff565b90610121610b30565b6001600160a01b03918216928315610177575050600554826bffffffffffffffffffffffff60a01b821617600555167f8be0079c531659141344cd1fd0a4f28419497f9722a3daafe3b4186f6b6457e08380a380f35b906020608492519162461bcd60e51b8352820152602660248201527f4f776e61626c653a206e6577206f776e657220697320746865207a65726f206160448201526564647265737360d01b6064820152fd5b8280fd5b509190346103c257816003193601126103c25733825260206006815260ff8284205416158015610391575b1561035657338352828152680ad78ebc5ac62000008284205410156103145733156102d257600254916802b5e3af16b1880000928381018091116102bf57907f896e034966eaaf1adc54acc0f257056febbd300c9e47182cf761982cf1f5e43092916002553385528482528085208481540190558051848152857fddf252ad1be2c89b69c2b068fc378daa952ba7f163c4a11628f55a4df523b3ef843393a333855260068252808520600160ff19825416179055600782524281862055519283523392a280f35b634e487b7160e01b855260118652602485fd5b8390606492519162461bcd60e51b8352820152601f60248201527f45524332303a206d696e7420746f20746865207a65726f2061646472657373006044820152fd5b8390606492519162461bcd60e51b8352820152601b60248201527f42616c616e636520746f6f206869676820666f722066617563657400000000006044820152fd5b8390606492519162461bcd60e51b8352820152601660248201527546617563657420636f6f6c646f776e2061637469766560501b6044820152fd5b5060078152818320546201518081018091116103af574210156101f8565b634e487b7160e01b845260118552602484fd5b5080fd5b5050346103c257806003193601126103c257806020926103e4610aff565b6103ec610b1a565b6001600160a01b0391821683526001865283832091168252845220549051908152f35b5050346103c25760203660031901126103c25760209181906001600160a01b03610437610aff565b1681526007845220549051908152f35b5050346103c257806003193601126103c257602090610471610467610aff565b6024359033610bab565b5160018152f35b50823461051c578260031936011261051c57610492610aff565b918360243592338152600160205281812060018060a01b03861682526020522054908282106104cb576020856104718585038733610d19565b608490602086519162461bcd60e51b8352820152602560248201527f45524332303a2064656372656173656420616c6c6f77616e63652062656c6f77604482015264207a65726f60d81b6064820152fd5b80fd5b509190346103c257816003193601126103c257805190828454600181811c90808316928315610635575b60209384841081146106225783885290811561060657506001146105b1575b505050829003601f01601f191682019267ffffffffffffffff84118385101761059e575082918261059a925282610ab6565b0390f35b634e487b7160e01b815260418552602490fd5b8787529192508591837f8a35acfbc15ff81a39ae7d344fd709f28e8600b4aa8c65c6b64bfe7fe36bd19b5b8385106105f25750505050830101388080610568565b8054888601830152930192849082016105dc565b60ff1916878501525050151560051b8401019050388080610568565b634e487b7160e01b895260228a52602489fd5b91607f1691610549565b5050346103c257816003193601126103c25760055490516001600160a01b039091168152602090f35b5050346103c257816003193601126103c25760209051620151808152f35b5050346103c257816003193601126103c257602090516802b5e3af16b18800008152f35b5050346103c25760203660031901126103c25760209160ff9082906001600160a01b036106d5610aff565b1681526006855220541690519015158152f35b833461051c578060031936011261051c57610701610b30565b600580546001600160a01b0319811690915581906001600160a01b03167f8be0079c531659141344cd1fd0a4f28419497f9722a3daafe3b4186f6b6457e08280a380f35b5050346103c25760203660031901126103c25760209181906001600160a01b0361076d610aff565b16815280845220549051908152f35b5090346101c957806003193601126101c957610796610aff565b90602435916107a3610b30565b6001600160a01b031692831561080057506020827fddf252ad1be2c89b69c2b068fc378daa952ba7f163c4a11628f55a4df523b3ef926107e68795600254610b88565b60025585855284835280852082815401905551908152a380f35b6020606492519162461bcd60e51b8352820152601f60248201527f45524332303a206d696e7420746f20746865207a65726f2061646472657373006044820152fd5b5050346103c257806003193601126103c25761047160209261088b610865610aff565b338352600186528483206001600160a01b03821684528652918490205460243590610b88565b9033610d19565b5050346103c257816003193601126103c2576020905160128152f35b508290346103c25760603660031901126103c2576108ca610aff565b6108d2610b1a565b91846044359460018060a01b03841681526001602052818120338252602052205490600019820361090c575b602086610471878787610bab565b848210610935575091839161092a6020969561047195033383610d19565b9193948193506108fe565b606490602087519162461bcd60e51b8352820152601d60248201527f45524332303a20696e73756666696369656e7420616c6c6f77616e63650000006044820152fd5b5050346103c257816003193601126103c2576020906002549051908152f35b5050346103c257806003193601126103c2576020906104716109b7610aff565b6024359033610d19565b84915083346101c957826003193601126101c95782600354600181811c90808316928315610aac575b602093848410811461062257838852908115610a905750600114610a3a57505050829003601f01601f191682019267ffffffffffffffff84118385101761059e575082918261059a925282610ab6565b600387529192508591837fc2575a0e9e593c00f959f8c92f12db2869c3395a3b0502d05e2516446f71f85b5b838510610a7c5750505050830101858080610568565b805488860183015293019284908201610a66565b60ff1916878501525050151560051b8401019050858080610568565b91607f16916109ea565b6020808252825181830181905290939260005b828110610aeb57505060409293506000838284010152601f8019910116010190565b818101860151848201604001528501610ac9565b600435906001600160a01b0382168203610b1557565b600080fd5b602435906001600160a01b0382168203610b1557565b6005546001600160a01b03163303610b4457565b606460405162461bcd60e51b815260206004820152602060248201527f4f776e61626c653a2063616c6c6572206973206e6f7420746865206f776e65726044820152fd5b91908201809211610b9557565b634e487b7160e01b600052601160045260246000fd5b6001600160a01b03908116918215610cc65716918215610c7557600082815280602052604081205491808310610c2157604082827fddf252ad1be2c89b69c2b068fc378daa952ba7f163c4a11628f55a4df523b3ef958760209652828652038282205586815220818154019055604051908152a3565b60405162461bcd60e51b815260206004820152602660248201527f45524332303a207472616e7366657220616d6f756e7420657863656564732062604482015265616c616e636560d01b6064820152608490fd5b60405162461bcd60e51b815260206004820152602360248201527f45524332303a207472616e7366657220746f20746865207a65726f206164647260448201526265737360e81b6064820152608490fd5b60405162461bcd60e51b815260206004820152602560248201527f45524332303a207472616e736665722066726f6d20746865207a65726f206164604482015264647265737360d81b6064820152608490fd5b6001600160a01b03908116918215610dca5716918215610d7a5760207f8c5be1e5ebec7d5bd14f71427d1e84f3dd0314c0f7b2291e5b200ac8c7c3b925918360005260018252604060002085600052825280604060002055604051908152a3565b60405162461bcd60e51b815260206004820152602260248201527f45524332303a20617070726f766520746f20746865207a65726f206164647265604482015261737360f01b6064820152608490fd5b60405162461bcd60e51b8152602060048201526024808201527f45524332303a20617070726f76652066726f6d20746865207a65726f206164646044820152637265737360e01b6064820152608490fdfea26469706673582212209efaa408d139bbaa9fbce3ec602597a9941cc1a1a41d6b94056f59989edf82ab64736f6c63430008130033",
  "linkReferences": {},
  "deployedLinkReferences": {}
}